:1000000002057C0205080B0E0004FFFFFFFFFFFF47
:100010000001003FFFFFFFFFFFFFFFFFFFFF003F6B
:0800200000030001FFFFFFFFD8
:10002B00020800D2B9D2ADC20BA20C929222120CD2
:10003B009CEF5470FF227F03120D55EF2402FF2219
:10004B00020966020396E86480F8E933E83360112D
:10005B000460F0ED33EC337009E8FCE9FDEAFEEBEC
:10006B00FF220460DED3EB9FEA9EE99DE8C2E78C9A
:10007B00F0C2F795F0400CE8CCF8E9CDF9EACEFAEE
:10008B00EBCFFB12036185D0F05804700320D5B37E
:10009B00E80470075002B2D50203A092D5EC0460BD
:1000AB00F7E4CCC0E0C398F8603B94186008400DAF
:1000BB00D0E0FB020378E4FBFAC9FC8028E830E4CB
:1000CB0006E4C9FBE4CAFCE830E305E4C9CACBFC8F
:1000DB00E854076010F8C3E913F9EA13FAEB13FBC2
:1000EB00EC13FCD8F130F52FC3E49CFCEF9BFFEE37
:1000FB009AFEED99FDD0E0FBEF4E4D4C701222DBDA
:10010B000302039DEC2CFCEF33FFEE33FEED33FDCE
:10011B00ED30E7EB020378EF2BFFEE3AFEED39FD06
:10012B00D0E0FB50130BBB00030203A0ED13FDEE5D
:10013B0013FEEF13FFEC13FC020378EC4D6011E898
:10014B00497017ED33EC3304600DE4FCFFFEFD2228
:10015B00E933E8330470F802039612036158046024
:10016B0009E4CC248150062850090203A02840033F
:10017B0002039DC0E0EB4A7044B98006D0E0FB025D
:10018B00038CEF4E701CBD8008EBFFEAFEE9FD808F
:10019B00EBE98DF0A4FEE5F002022FE9CDF9EAFEC2
:1001AB00EBFFEF89F0A4FCE5F0CE89F0A42EFFE481
:1001BB0035F0CD89F0A42DFEE435F08067EF4E705D
:1001CB0005BD80D780C3EF8BF0A4ACF0EE8BF0A411
:1001DB002CFCE435F0F8EF8AF0A42CE5F038FCE4C5
:1001EB0033CB8DF0A42CFCE5F03BF8EE8AF0A42C7D
:1001FB00FCE5F038F8E433CF89F0A42CFCE5F038BB
:10020B00CF3400CE89F0A42FFFE5F03EFEE433C9D6
:10021B008DF0A42EFEE5F039CD8AF0A42FFFE5F08A
:10022B003EFEE43DFD33D0E0FB50070BBB000F025D
:10023B0003A0EC2CFCEF33FFEE33FEED33FD02039A
:10024B00780203A0EC5D046005E859047003020317
:10025B0096120361580460F6EC4860F2EC7004FDF2
:10026B00FEFF22C860DB2481C85009C3986002508E
:10027B000602039D9850CAF582E9294B4A7005ABDB
:10028B008202038C75F0007C1A7880C3EF9BEE9A88
:10029B00ED99400DC3EF9BFFEE9AFEED99FDE84201
:1002AB00F0DC23ACF0D0E0FFD0E0FED0E0FDAB8281
:1002BB0020E7101BEB60BAEC2CFCEF33FFEE33FEA8
:1002CB00ED33FD020378E803F830E705C0F075F075
:1002DB0000EF2FFFEE33FEED33FD40B830E7C28069
:1002EB00AA75F020800E75F010800575F0087D0062
:1002FB007E007F003392D530D50312048CEC334053
:10030B0010EF33FFEE33FEED33FDEC33FCD5F0EDA8
:10031B0022E5F0247EA2D513CC92E7CDCEFF22EDC1
:10032B00D2E7CD33EC3392D524814006E4FFFEFDBA
:10033B00FC22FCE4CFCECDCC24E0501174FF80ED39
:10034B00C3CC13CCCD13CDCE13CECF13CF0470F0C3
:10035B0030D5DE02048CE9D2E7C933E833F892D505
:10036B00EDD2E7CD33EC33FC5002B2D522EC30E7C3
:10037B00100FBF000C0EBE00080DBD00040BEB6090
:10038B0014A2D5EB13FCED92E7FD2274FFFCFDFEEE
:10039B00FF22E480F8A2D574FF13FC7D80E480EF8C
:1003AB00BB010689828A83E0225002E722BBFE0250
:1003BB00E32289828A83E49322BB010CE58229F52F
:1003CB0082E5833AF583E0225006E92582F8E6229E
:1003DB00BBFE06E92582F8E222E58229F582E58358
:1003EB003AF583E49322BB010689828A83F022507B
:1003FB0002F722BBFE01F322F8BB010DE58229F5C2
:10040B0082E5833AF583E8F0225006E92582C8F6A7
:10041B0022BBFE05E92582C8F222EF8DF0A4A8F0DD
:10042B00CF8CF0A428CE8DF0A42EFE22BC000BBEE8
:10043B000029EF8DF084FFADF022E4CCF875F008C5
:10044B00EF2FFFEE33FEEC33FCEE9DEC984005FCFA
:10045B00EE9DFE0FD5F0E9E4CEFD22EDF8F5F0EEC2
:10046B008420D21CFEADF075F008EF2FFFED33FDAD
:10047B004007985006D5F0F222C398FD0FD5F0EA4D
:10048B0022C3E49FFFE49EFEE49DFDE49CFC22E777
:10049B0009F608DFFA8046E709F208DFFA803E88A2
:1004AB00828C83E709F0A3DFFA8032E309F608DFD9
:1004BB00FA806EE309F208DFFA806688828C83E3A8
:1004CB0009F0A3DFFA805A89828A83E0A3F608DF5A
:1004DB00FA804E89828A83E0A3F208DFFA80428099
:1004EB00D280FA80C680D4805580F280298010801B
:1004FB00A680EA809A80A880DA80E280CA80298868
:10050B00848C8589828A83E493A30592F0A3159248
:10051B00DFF5DEF3800B89828A83E493A3F608DF91
:10052B00F9ECFAA9F0EDFB2288848C8589828A8309
:10053B00E0A30592F0A31592DFF6DEF480E3898247
:10054B008A83E493A3F208DFF980D688F0EF600189
:10055B000E4E60CD88F0ED2402B4040050C3F5823A
:10056B00EB2402B4040050B923234582239004EA00
:10057B0073787FE4F6D8FD7581610205C3020647E7
:10058B00E493A3F8E493A34003F68001F208DFF4AD
:10059B008029E493A3F85407240CC8C333C4540F25
:1005AB004420C8834004F456800146F6DFE4800BF8
:1005BB000102040810204080900608E47E0193603D
:1005CB00BCA3FF543F30E509541FFEE493A3600125
:1005DB000ECF54C025E060A840B8E493A3FAE4938F
:1005EB00A3F8E493A3C8C582C8CAC583CAF0A3C83D
:1005FB00C582C8CAC583CADFE9DEE780BE42805325
:10060B00000050800504192A3F4D00000000000037
:10061B00000000000045803F0104070A0D418000E7
:10062B00FF4180470041804A0042804B00004280DE
:10063B0015000045804E000000000000120EECD1AA
:10064B0077E4F594D2AF120DC3754700754800756A
:10065B004900754A00754B00754C007B007A007998
:10066B0029120F49EF60E285298080DD78447C00F8
:10067B007D007BFF7A0079037E007F05B156120F58
:10068B0027C290A20B9292C20C7F0112135B7F01C7
:10069B001213387FFF12132CE4908004F090801C0F
:1006AB007405F0C209C20AE4908001F0C208D201BD
:1006BB00D202C206D20090801DF0A3F0C203C20486
:1006CB00C205908046F07B017A80793FFF120CC304
:1006DB007B007A0079447F01120CC37544037B00C5
:1006EB007A0079447F02120CC37544047B007A00B4
:1006FB0079447F03120CC37544057B007A0079445F
:10070B007F04120CC37544067B007A0079447F0585
:10071B00120CC3908004E02405F582E43480F58349
:10072B00E0FF120C4AE490801FF0A3F0A304F0A3A7
:10073B0074F4F0A3E4F0A37402F0A3E4F0A3742325
:10074B00F0E4A3F0A3F0A3F0A3743FF0E4908035A2
:10075B00F0A3F090802BF0A3F0A3F0A37464F0A3AC
:10076B007403F0A374F0F0A37401F0A37468F0A306
:10077B00E4F0A37402F0908037E4F0A37403F0E488
:10078B00A3F0A3F0A3F0A37496F0A3E4F0A3743248
:10079B00F01212DD7F011213017F021212857F0509
:1007AB001212C611391212B41212BD7FF07E03124F
:1007BB000FC1120B6D012EEF60122007157F01F197
:1007CB00DE7F03AE071FEE70FAD20722E4FFF1DEE5
:1007DB00C207228F1AE4FF120D558F1BE51AB401C5
:1007EB0005431B028003531BFDAD1BE4FF020CA052
:1007FB007F60020D55C0E0C0F0C083C082C085C0D1
:10080B0084C0925392FEC0D075D000C000C001C00E
:10081B0002C003C004C005C006C007C2C611599070
:10082B008054E004F07006908053E004F0D007D0C1
:10083B0006D005D004D003D002D001D000D0D0D048
:10084B0092D084D085D082D083D0F0D0E032C2B9A0
:10085B00C2AD121060300A0C90802FE0FEA3E0FFB7
:10086B00F1C1C20A90804DE064026002211071B7A1
:10087B007522008F23D20BD292908004E0652370F7
:10088B0002E5226023C290A20B9292C20C74052F38
:10089B00F58274803522F583E0FF914AD292D29093
:1008AB00D20C908004E523F0D15D8E228F23D15D95
:1008BB00EF4E700F7F011207C2D206D292D290D2A6
:1008CB000C800FC290A20B9292C20CC206E4FF12D4
:1008DB0007C2908003E004F07006908002E004F001
:1008EB0090802BE0FEA3E08E22F523D39400EE94B0
:1008FB0000403E908003E09523908002E0952240DB
:10090B0030716D802C90804DE06401702430082193
:10091B001210FD8E228F2330030FE5234522701119
:10092B0071B7908004E0B5070831AFC290D206C210
:10093B0008D390801EE0940090801DE09400400E40
:10094B00A3E024FFF090801DE034FFF08002C2038F
:10095B00C20BA20C9292D2B9D2AD22C0E0C0F0C0B1
:10096B0083C082C085C084C0925392FEC0D075D024
:10097B0000C000C001C002C003C004C005C006C057
:10098B000731C8D007D006D005D004D003D002D091
:10099B0001D000D0D0D092D084D085D082D083D05B
:1009AB00F0D0E032D292D290D20C7F0A7E000000BF
:1009BB00000000EF1F70011E144E70F222C2B9C26C
:1009CB00ADD20BD29291FF8F27E52730E633D204BD
:1009DB00F102EF24FF9205719F90804DE0B401214D
:1009EB00908001E0FF908046E0FE2419F582E4340C
:1009FB0080F583EFF0EEC394025006908046E0043E
:100A0B00F0E52720E40330E51CD1F9EF04F5249041
:100A1B008018E0C39524F0908049E02524F0908065
:100A2B0048E03400F0E52720E50241D690804DE008
:100A3B006401600241D6D20A908017E0241275F04F
:100A4B0004A4FF908032E02FFF908031E035F0FE60
:100A5B00C3908030E09FFF90802FE09EFEE5273013
:100A6B00E60874D82FFF74FF3EFEF1C11210C67159
:100A7B009F90801FE0F525A3E0F52690803BE0FFDB
:100A8B00A3E090801DCFF0A3EFF0E526640245258F
:100A9B006010E526640345256008E52664044525BA
:100AAB007002D203F10BEF6006D200716D801CF166
:100ABB0015E4908002F0A3F0908048F0A3F0D2925E
:100ACB00D290D20C7F0AFE31B9C290E52720E40206
:100ADB006162C290A20B9292C20C908003E025241B
:100AEB00F0908002E03400F0908021E0F525A3E047
:100AFB00F526E5264525600FC3908003E0952690EB
:100B0B008002E095255003300904716D8049908077
:100B1B0018E0703D90803DE0FEA3E0FFD390804550
:100B2B00E09F908044E09E400DE490801DF0A3F088
:100B3B00C2037F0180173003121210FDD3EF940113
:100B4B00EE94004002C2067F0280027F0371D280C6
:100B5B0006915E31AFC290C20BA20C9292D2B9D267
:100B6B00AD22C290A20B9292C20C90804DE0B402C7
:100B7B00057F0F121041908039E07004A3E06401EF
:100B8B007003FF80027F011207C2C206C209E49004
:100B9B00804DF022908033E0FFA3E090804BCFF0AC
:100BAB00A3EFF0908004E090804AF022D390804C29
:100BBB00E0940090804BE09400400690804AE0FF68
:100BCB0022908047E0FF228F18F115915EE51814F3
:100BDB00601014601B14601F8000908004E0F519F6
:100BEB00802990801CE0FDE4FF12100A8F19801BF6
:100BFB001210D68F198014908004E004F5199080A0
:100C0B001CE0FFE5198FF08485F019908004E065F6
:100C1B0019601FE519F0E02405F582E43480F583B3
:100C2B00E0FF914A908045E004F07006908044E02C
:100C3B0004F0300303D20822D20631AFC29022E473
:100C4B00F51DEF547FFFE51D54804FF51DAD1D7F46
:100C5B00058042908018E0D3940F40087DFA7C0009
:100C6B007F0F800C908018E0C39401FF7DFA7C000D
:100C7B00AB07EC540FC454F0FFE51C540F4FF51C9D
:100C8B00EB540FFFE51C54F04FF51CAD1C7F04809B
:100C9B00047D707F07C291EF2420F5E5C2C030C000
:100CAB00FDAFE58DE5C2C030C0FD85E51ED29122BA
:100CBB007B017A80793FE4FF8F498B4A8A4B894CC1
:100CCB00E54914600A24FB501960042406702412B1
:100CDB0000418F51E549242AFFAB4AAA4BA94C028C
:100CEB00137CE549240AFFAB4AAA4BA94C1203AB70
:100CFB00FD91A022919CEF5470F5287F07B155EF21
:100D0B00540F4228AF28228F457F02B1558F467F63
:100D1B0001B1558F47E54524FA500624076016802C
:100D2B0019AF457401A807088002C333D8FCF452ED
:100D3B004652478005E4F546F547AD467F0291A044
:100D4B00AD477F0181A08F497F1DC2918FE5C2C046
:100D5B0030C0FDAFE5E4F5E5C2C030C0FDAFE5D274
:100D6B0091228F458D467F02B1558F477F01B1553B
:100D7B008F48E54524FA500624076021802EAF45A5
:100D8B007401A807088002C333D8FCFF4247E5462D
:100D9B006005EF42488015EFF45248800F75473FCE
:100DAB00E546600575483F8003E4F548AD477F0293
:100DBB0091A0AD487F0181A0D13D30023FF127C208
:100DCB0002D20191BB7FFFB112E4F54474017E00A6
:100DDB00A844088005C333CE33CED8F9FF908029C1
:100DEB00E05EFEA3E05F4E60067D01AF44B16D0592
:100DFB0044E544C3940640D47F01D1227F011207FE
:100E0B00C2E4908002F0A3F090804D7402F0D29275
:100E1B00D290D20C02002E8F45E4FFB1558F46E5E0
:100E2B0045B4010543460180035346FEAD46E4FF3E
:100E3B0081A090804DE0B4010AD20990804DE06012
:100E4B001080F890804DE0B40207F127716D12000D
:100E5B002E22908027E07002A3E0600FD390804C8D
:100E6B00E0940090804BE094004004E4FEFF22905D
:100E7B008015E07002A3E07003FEFF22908025E056
:100E8B00FEA3E0FF7C017DDC12042590802FE0FCAB
:100E9B00A3E0FD120437AB07AA0690801CE0FF7E8F
:100EAB0000AD03AC02120425D3908016E09F908016
:100EBB0015E09E5016E0FEA3E0FF120437C3EB9D36
:100ECB00FFEA9CCF24FFCF34FFFE22908015E0FE7B
:100EDB00A3E0FFC390802EE09FFF90802DE09EFE4D
:100EEB0022D2B9C29075E61075C810D2C8227F08FD
:100EFB00B155EF540FFF227F09B155EF5401FF227B
:100F0B007F17B155EFC45401FF22300305908023A6
:100F1B008003908025A3E0908018F022A2AFE433E9
:100F2B00C2AFC2B9C2ADD20BD29224FF92AF22F1A3
:100F3B00271212B4E4908046F0C20402002E8B44B8
:100F4B008A458946F1273004671207FB8F4EE54E21
:100F5B00D394205059AB44AA45A946F1F89080464A
:100F6B00E0D394004012E014F0E02419F582E4344D
:100F7B0080F583E0F54D80028E4D121000EF60027C
:100F8B00C204E54C454B454A600BAB4AAA4BA94CF6
:100F9B00E54D1203F1E54945484547600BAB47AAC0
:100FAB0048A949E54E1203F112002E7F0122F13AB6
:100FBB0012002E7F0022AD07AC06E41202F1E4FB17
:100FCB00FA79807840120146E4FBFA7940784012B6
:100FDB00024FE4FBFAF9783F12005512032AC3E4DF
:100FEB009FFFE49EF5CB8FCAF5CD8FCC227F0802F5
:020FFB001140A3
:101000007F17120D55EF5401FF22EFD394004005D6
:10101000908000EFF0908000E0FFC43333335480C1
:10102000FEEFC4333354806206E0FFC43354806261
:1010300006EF54806206E0C3134EF08DF084AFF0EB
:1010400022AE071FEED3940040157C007D2DED1DD0
:10105000AA0470011CD39400EA940040E480EF22BB
:10106000D390804CE0940090804BE09400400CA31F
:10107000E024FFF090804BE034FFF0908016E024F5
:1010800001FF908015E03400FE90802DE0FCA3E08D
:10109000FD120437908015ECF0A3EDF0908027E06E
:1010A0007002A3E0600A908015E07002A3E0701562
:1010B000908047E004FF90801CE0FEEF8EF084906B
:1010C0008047E5F0F022908004E0908047F0E490C3
:1010D0008015F0A3F022D390804CE0940190804BD7
:1010E000E09400400690804AE0FF22908047E004B0
:1010F000FF90801CE0FEEF8EF084AFF022908027FE
:10110000E07002A3E0600FD390804CE094009080E8
:101110004BE094004004E4FEFF22908015E0FCA325
:10112000E0FD4C7003FEFF22C390802EE09DFF90F7
:10113000802DE09CFE228FE5C2C030C0FDAFE522CD
:101140008F568B578A588959755E0185575CE556CD
:1011500014600C24FB600824FE60142408702A121A
:1011600000418F5A8F5BC291E556240AFF801651C9
:101170006F8F56E556C39407500F1207FB8F5A8F97
:101180005BC2917F6131368005E4F55BF55AE55C21
:10119000702685595FE4F5E5C2C0E55E7008A85F7A
:1011A000A65D055F8003E4F55E30C0FD85E55DD595
:1011B0005AE3A85FA65D4166E55C64017039855815
:1011C0005F855960E4F5E5C2C0E55E701385608215
:1011D000855F83E55DF00560E5607002055F800373
:1011E000E4F55E30C0FD85E55DD55AD88560828521
:1011F0005F83E55DF0806FE55C64FE702885595F74
:10120000E4F5E5C2C0E55E7009A85FE55DF2055F43
:101210008003E4F55E30C0FD85E55DD55AE2A85F48
:10122000E55DF2804185575F855860855961E4F539
:10123000E5C2C0E55E7018AB5FAA60A961E55D120A
:1012400003F174012561F561E43560F5608003E424
:10125000F55E30C0FD85E55DD55AD3AB5FAA60A9C8
:1012600061E55D1203F1D291E556FEE55BFF225187
:101270007CEF540EFFE4C313EF13FF22C2917FFFF4
:101280003136D291228F49E4FF120D558F4AE5493C
:1012900014600C14601124027013534AF7800E433B
:1012A0004A08534AFB8006434A08434A04AD4AE4CD
:1012B000FF020CA0C2917FE23136D29122C2917F0F
:1012C000E13136D29122E4F549EF24FE5403FFE5E3
:1012D0004954FC4FF549AD497F03020CA09080377B
:1012E000A3E0FF8F497F06120D558F4AE54954034D
:1012F00025E0FFE54A54F94FF54AAD4A7F06020C56
:10130000A08F497F06120D558F4AE549600924FEDA
:10131000700D434A208003534ADF534AF780065337
:101320004ADF434A08AD4A7F06020CA0EF543FF55E
:1013300049AD497F1C020CA0120D518F4AE5497F2F
:101340000060027F01EF540125E025E0FFE54A54EB
:10135000FB4FF54AAD4A7F1D020CA0120D518F4A7A
:10136000E5497F0060027F01EF540125E0FFE54A77
:1013700054FD4FF54AAD4A7F1D020CA08B4E8A4F9B
:101380008950AD4EC2918FE5C2C0ED7018855053A3
:10139000A853E6FE055330C0FD85E5528EE5C2C078
:1013A000D551ED8072ED64017025854F5385505401
:1013B000855482855383E0FE0554E554700205533D
:1013C00030C0FD85E5528EE5C2C0D551E38048EDC1
:1013D00064FE7018855053A853E2FE055330C0FDDB
:1013E00085E5528EE5C2C0D551ED802B854E5385E3
:1013F0004F54855055AB53AA54A9551203ABFE74F4
:10140000012555F555E43554F55430C0FD85E552B8
:101410008EE5C2C0D551DE30C0FD85E552D29122A5
:00000001FF
