:1000000002059C50001504192A3F4D000000000015
:1000100000000000000045004F0104070A0D4100E8
:1000200010FF4100570041005A0042005B000042AF
:100030000025000000D2B9D2BDC20BA20C92EA2268
:1000400090005DE0FF227F60020CA90209587F0248
:100050001214C67F0312123D7F011214AC1214BC9D
:04006000BF02FA22BF
:10006B000208000203B6E86480F8E933E833601154
:10007B000460F0ED33EC337009E8FCE9FDEAFEEBCC
:10008B00FF220460DED3EB9FEA9EE99DE8C2E78C7A
:10009B00F0C2F795F0400CE8CCF8E9CDF9EACEFACE
:1000AB00EBCFFB12038185D0F05804700320D5B33E
:1000BB00E80470075002B2D50203C092D5EC04607D
:1000CB00F7E4CCC0E0C398F8603B94186008400D8F
:1000DB00D0E0FB020398E4FBFAC9FC8028E830E48B
:1000EB0006E4C9FBE4CAFCE830E305E4C9CACBFC6F
:1000FB00E854076010F8C3E913F9EA13FAEB13FBA2
:10010B00EC13FCD8F130F52FC3E49CFCEF9BFFEE16
:10011B009AFEED99FDD0E0FBEF4E4D4C701222DBB9
:10012B00030203BDEC2CFCEF33FFEE33FEED33FD8E
:10013B00ED30E7EB020398EF2BFFEE3AFEED39FDC6
:10014B00D0E0FB50130BBB00030203C0ED13FDEE1D
:10015B0013FEEF13FFEC13FC020398EC4D6011E858
:10016B00497017ED33EC3304600DE4FCFFFEFD2208
:10017B00E933E8330470F80203B6120381580460C4
:10018B0009E4CC248150062850090203C0284003FF
:10019B000203BDC0E0EB4A7044B98006D0E0FB021D
:1001AB0003ACEF4E701CBD8008EBFFEAFEE9FD804F
:1001BB00EBE98DF0A4FEE5F002024FE9CDF9EAFE82
:1001CB00EBFFEF89F0A4FCE5F0CE89F0A42EFFE461
:1001DB0035F0CD89F0A42DFEE435F08067EF4E703D
:1001EB0005BD80D780C3EF8BF0A4ACF0EE8BF0A4F1
:1001FB002CFCE435F0F8EF8AF0A42CE5F038FCE4A5
:10020B0033CB8DF0A42CFCE5F03BF8EE8AF0A42C5C
:10021B00FCE5F038F8E433CF89F0A42CFCE5F0389A
:10022B00CF3400CE89F0A42FFFE5F03EFEE433C9B6
:10023B008DF0A42EFEE5F039CD8AF0A42FFFE5F06A
:10024B003EFEE43DFD33D0E0FB50070BBB000F023D
:10025B0003C0EC2CFCEF33FFEE33FEED33FD02035A
:10026B00980203C0EC5D046005E8590470030203B7
:10027B00B6120381580460F6EC4860F2EC7004FD92
:10028B00FEFF22C860DB2481C85009C3986002506E
:10029B00060203BD9850CAF582E9294B4A7005AB9B
:1002AB00820203AC75F0007C1A7880C3EF9BEE9A48
:1002BB00ED99400DC3EF9BFFEE9AFEED99FDE842E1
:1002CB00F0DC23ACF0D0E0FFD0E0FED0E0FDAB8261
:1002DB0020E7101BEB60BAEC2CFCEF33FFEE33FE88
:1002EB00ED33FD020398E803F830E705C0F075F035
:1002FB0000EF2FFFEE33FEED33FD40B830E7C28049
:10030B00AA75F020800E75F010800575F0087D0041
:10031B007E007F003392D530D5031204ACEC334012
:10032B0010EF33FFEE33FEED33FDEC33FCD5F0ED88
:10033B0022E5F0247EA2D513CC92E7CDCEFF22EDA1
:10034B00D2E7CD33EC3392D524814006E4FFFEFD9A
:10035B00FC22FCE4CFCECDCC24E0501174FF80ED19
:10036B00C3CC13CCCD13CDCE13CECF13CF0470F0A3
:10037B0030D5DE0204ACE9D2E7C933E833F892D5C5
:10038B00EDD2E7CD33EC33FC5002B2D522EC30E7A3
:10039B00100FBF000C0EBE00080DBD00040BEB6070
:1003AB0014A2D5EB13FCED92E7FD2274FFFCFDFECE
:1003BB00FF22E480F8A2D574FF13FC7D80E480EF6C
:1003CB00BB010689828A83E0225002E722BBFE0230
:1003DB00E32289828A83E49322BB010CE58229F50F
:1003EB0082E5833AF583E0225006E92582F8E6227E
:1003FB00BBFE06E92582F8E222E58229F582E58338
:10040B003AF583E49322BB010689828A83F022505A
:10041B0002F722BBFE01F322F8BB010DE58229F5A1
:10042B0082E5833AF583E8F0225006E92582C8F687
:10043B0022BBFE05E92582C8F222EF8DF0A4A8F0BD
:10044B00CF8CF0A428CE8DF0A42EFE22BC000BBEC8
:10045B000029EF8DF084FFADF022E4CCF875F008A5
:10046B00EF2FFFEE33FEEC33FCEE9DEC984005FCDA
:10047B00EE9DFE0FD5F0E9E4CEFD22EDF8F5F0EEA2
:10048B008420D21CFEADF075F008EF2FFFED33FD8D
:10049B004007985006D5F0F222C398FD0FD5F0EA2D
:1004AB0022C3E49FFFE49EFEE49DFDE49CFC22E757
:1004BB0009F608DFFA8046E709F208DFFA803E8882
:1004CB00828C83E709F0A3DFFA8032E309F608DFB9
:1004DB00FA806EE309F208DFFA806688828C83E388
:1004EB0009F0A3DFFA805A89828A83E0A3F608DF3A
:1004FB00FA804E89828A83E0A3F208DFFA80428079
:10050B00D280FA80C680D4805580F28029801080FA
:10051B00A680EA809A80A880DA80E280CA80298847
:10052B00848C8589828A83E493A30592F0A3159228
:10053B00DFF5DEF3800B89828A83E493A3F608DF71
:10054B00F9ECFAA9F0EDFB2288848C8589828A83E9
:10055B00E0A30592F0A31592DFF6DEF480E3898227
:10056B008A83E493A3F208DFF980D688F0EF600169
:10057B000E4E60CD88F0ED2402B4040050C3F5821A
:10058B00EB2402B4040050B9232345822390050ABF
:10059B0073787FE4F6D8FD7581690205E302064D99
:1005AB00E493A3F8E493A34003F68001F208DFF48D
:1005BB008029E493A3F85407240CC8C333C4540F05
:1005CB004420C8834004F456800146F6DFE4800BD8
:1005DB000102040810204080900003E47E01936028
:1005EB00BCA3FF543F30E509541FFEE493A3600105
:1005FB000ECF54C025E060A840B8E493A3FAE4936F
:10060B00A3F8E493A3C8C582C8CAC583CAF0A3C81C
:10061B00C582C8CAC583CADFE9DEE780BE0205080A
:10062B000B0E0004FFFFFFFFFFFF0001003FFFFF6A
:10063B00FFFFFFFFFFFFFFFF003F00030001FFFF76
:10064B00FFFF114ED16DD2AF1140EF70FBE580F47F
:10065B00F5297B007A007929E4F5487D1B120D8F73
:10066B0080E678447C007D007BFF7A0679287E004B
:10067B007F05B176121000C2E8A20B92EAC20C7F82
:10068B000112132C7F011213097FFF1212FDE4904C
:10069B000014F090002C7405F0C209C20AE490001B
:1006AB0011F0C208D201D202C206D20090002DF086
:1006BB00A3F0C203C204C205900056F07B017A007E
:1006CB00794FFF120D557B007A0079447F01120D93
:1006DB00557544037B007A0079447F02120D5575E2
:1006EB0044047B007A0079447F03120D5575440551
:1006FB007B007A0079447F04120D557544067B000C
:10070B007A0079447F05120D55900014E02415F5FD
:10071B0082E43400F583E0FF121133E490002FF0F4
:10072B00A3F0A304F0A374F4F0A3E4F0A37402F019
:10073B00A3E4F0A37423F0E4A3F0A3F0A3F0A37459
:10074B003FF0E4900045F0A3F090003BF0A3F0A342
:10075B00F0A37464F0A37403F0A374F0F0A374011A
:10076B00F0A37468F0A3E4F0A37402F0900047E4E4
:10077B00F0A37403F0E4A3F0A3F0A3F0A37496F03A
:10078B00A3E4F0A37432F01212AE7F011212D27FE7
:10079B00021212687F05121297F1EF1214981214BD
:1007AB00A27FF07E031209A1120C490135EF6013F1
:1007BB002007177F0112124B7F03AE071FEE70FA53
:1007CB00D20722E4FF12124BC20722D2EAD2E8D29E
:1007DB000C7F0A7E000000000000EF1F70011E144A
:0C07EB004E70F222120D2CEF5470FF2211
:10080000C0E0C0F0C083C082C085C084C092539253
:10081000FEC0D075D000C000C001C002C003C0043B
:10082000C005C006C0071149D007D006D005D004C6
:10083000D003D002D001D000D0D0D092D084D085C7
:10084000D082D083D0F0D0E032C2B9C2BD12118EB6
:10085000300A0C90003FE0FEA3E0FF31A1C20A90F5
:10086000005DE064026002210131F57522008F23F2
:10087000D20BD2EA900014E065237002E5226024D6
:10088000C2E8A20B92EAC20C74152FF582740035EF
:1008900022F583E0FF121133D2EAD2E8D20C9000A5
:1008A00014E523F051108E228F235110EF4E700F5C
:1008B0007F011207B8D206D2EAD2E8D20C800FC26A
:1008C000E8A20B92EAC20CC206E4FF1207B890003D
:1008D00013E004F07006900012E004F090003BE09A
:1008E000FEA3E08E22F523D39400EE9400403F90C7
:1008F0000013E09523900012E09522403191498049
:100900002D90005DE0640170253008221212048EE3
:10091000228F2330030FE5234522701231F590001A
:1009200014E0B507091207D6C2E8D206C208D39070
:10093000002EE0940090002DE09400400EA3E024EF
:10094000FFF090002DE034FFF08002C203C20BA242
:100950000C92EAD2B9D2BD22C0E0C0F0C083C082FE
:10096000C085C084C0925392FEC0D075D000C00034
:10097000C001C002C003C004C005C006C007519F2B
:10098000D007D006D005D004D003D002D001D000CB
:10099000D0D0D092D084D085D082D083D0F0D0E097
:1009A00032AD07AC06E4FF31EA0F31EAE41203117D
:1009B000E4FBFAF978471201667B007A24797478AF
:1009C0004912026FE4FBFAF9783F12007512034AEC
:1009D000EF24FFFFEE34FFFEE5B35406FD53B3F9F9
:1009E000EFF5B4EEF5B5ED42B322EF600443B30189
:1009F0002253B3FE22D390005CE0940090005BE0B1
:100A00009400400690005AE0FF22900057E0FF2239
:100A1000900037E07002A3E0600FD390005CE09498
:100A20000090005BE094004004E4FEFF229000256B
:100A3000E07002A3E07003FEFF22900035E0FEA309
:100A4000E0FF7C017DDC12044590003FE0FCA3E068
:100A5000FD120457AB07AA0690002CE0FF7E00AD04
:100A600003AC02120445D3900026E09F900025E0DD
:100A70009E5016E0FEA3E0FF120457C3EB9DFFEA71
:100A80009CCF24FFCF34FFFE22900025E0FEA3E0A0
:100A9000FFC390003EE09FFF90003DE09EFE22C21B
:100AA000B9C2BDD20BD2EA91C38F27E52730E63316
:100AB000D204919CEF24FF9205917B90005DE0B4FD
:100AC0000121900011E0FF900056E0FE2429F582FC
:100AD000E43400F583EFF0EEC39402500690005624
:100AE000E004F0E52720E40330E51C9193EF04F5E2
:100AF00024900028E0C39524F0900059E02524F0CC
:100B0000900058E03400F0E52720E50261AF900046
:100B10005DE06401600261AFD20A900027E0241218
:100B200075F004A4FF900042E02FFF900041E035F3
:100B3000F0FEC3900040E09FFF90003FE09EFEE586
:100B40002730E60874D82FFF74FF3EFE31A1121142
:100B5000F4917B90002FE0F525A3E0F52690004B63
:100B6000E0FFA3E090002DCFF0A3EFF0E5266402B4
:100B700045256010E526640345256008E5266404E4
:100B800045257002D203F1DCEF6006D20091498066
:100B90001E121121E4900012F0A3F0900058F0A36F
:100BA000F0D2EAD2E8D20C7F0AFE1207E0C2E8E5F2
:100BB0002720E402813EC2E8A20B92EAC20C900018
:100BC00013E02524F0900012E03400F0900031E0B2
:100BD000F525A3E0F526E5264525600FC390001313
:100BE000E09526900012E0952550033009049149C4
:100BF000804C900028E0703E90004DE0FEA3E0FFA6
:100C0000D3900055E09F900054E09E400DE490008A
:100C10002DF0A3F0C2037F018017300312121204DB
:100C2000D3EF9401EE94004002C2067F0280027F5F
:100C30000312106B80081210E21207D6C2E8C20B32
:100C4000A20C92EAD2B9D2BD22C2E8A20B92EAC2A9
:100C50000C90005DE0B402057F0F12116F90004907
:100C6000E07004A3E064017003FF80027F011207BB
:100C7000B8C206C209E490005DF022900043E0FF94
:100C8000A3E090005BCFF0A3EFF0900014E09000A1
:100C90005AF0227F0891A9EF540FFF227F0991A9F2
:100CA000EF5401FF228F497F1DC2E98FE7E5E6542B
:100CB0000260FAAFE7E4F5E7E5E6540260FAAFE771
:100CC000D2E922B12CEF5470F5287F0791A9EF5497
:100CD0000F4228AF28228F518D527F0291A98F5346
:100CE0007F0191A98F54E55124FA50062407602111
:100CF000802EAF517401A807088002C333D8FCFFCF
:100D00004253E5526005EF42548015EFF45254808F
:100D10000F75533FE552600575543F8003E4F55469
:100D2000AD537F02B130AD547F0180047D707F07E9
:100D3000C2E9EF2420F5E7E5E6540260FAAFE78D5B
:100D4000E7E5E6540260FA85E71ED2E9227B017AE4
:100D500000794FE4FF8F518B528A538954E5511427
:100D6000600A24FB5017600424067022F1D38F59C7
:100D7000E551242AFFAB52AA53A954E10FE55124AF
:100D80000AFFAB52AA53A9541203CBFDB130228BF8
:100D9000448A4589468D47E5476005D3941B400347
:100DA0007F0022900027E547F090005DE0B4020349
:100DB000121013121000900011E065486005E5481C
:100DC000F0D20190005DE06002C1B9200102C1547F
:100DD000C201D202FFF1B87D01E4FF91D6E548706F
:100DE0000E7B017A00794F7F06B155B14D80657B4E
:100DF000007A0079497F01D1CF8F50E548640160C6
:100E000038E54824FD601214601914602080007BCE
:100E1000007A0079497F02801C7B007A0079497F43
:100E20000380127B007A0079497F0480087B007A76
:100E30000079497F05D1CF8F507B007A007949E452
:100E4000FFB1557B007A0079497F06B1557D01AF2E
:100E500048121034E4900012F0A3F0900054F0A374
:100E6000F0900058F0A3F01214A2F103C200900019
:100E70002FE0F54EA3E0F54F7F011207B8300317BE
:100E8000E54E700BE54F24FD60071460068000807E
:100E90001480167F028014E54E700EE54F24FE602C
:100EA0000424027004E4FF80027F0112106B9000A2
:100EB0005D7401F0120035FF2220010DF1E6EF70A4
:100EC00008F1031200357F01221200357F00228FC6
:100ED000518B528A538954E55114600824FB6004F5
:100EE0002406700BAB52AA53A954AF51021364E508
:100EF00051240AFF91A9AB52AA53A954EF1204112D
:100F00007F0122AB44AA45A946AD478D597FA08BEE
:100F1000568A578958AD56C2E98FE7ED7019855842
:100F20005BA85BE6FE055BE5E6540260FA85E75ADE
:100F30008EE7D559EC8075ED6401702685575B8589
:100F4000585C855C82855B83E0FE055CE55C700235
:100F5000055BE5E6540260FA85E75A8EE7D559E26B
:100F6000804AED64FE701985585BA85BE2FE055B64
:100F7000E5E6540260FA85E75A8EE7D559EC802CF5
:100F800085565B85575C85585DAB5BAA5CA95D1295
:100F900003CBFE7401255DF55DE4355CF55CE5E6AB
:100FA000540260FA85E75A8EE7D559DDE5E654022A
:100FB00060FA85E75AD2E9228F51E4FF91A98F5256
:100FC000E551B4010543520180035352FEAD52E492
:100FD000FFA1307F0391A9EF2402FF227F1791A97F
:100FE000EFC45401FF227F1791A9EFC4135401FFEE
:0B0FF000228FE7E5E630E1FBAFE722CF
:10100000A2AFE433C2AFC2B9C2BDD20BD2EA24FF51
:1010100092AF2290005DE0B4010AD20990005DE039
:10102000601180F890005DE0B402081100120C49D4
:1010300012003522EFD394004005900010EFF0909D
:101040000010E0FFC43333335480FEEFC433335415
:10105000806206E0FFC43354806206EF548062066B
:10106000E0C3134EF08DF084AFF0228F18312111C0
:10107000E2E51814601014601A14601D80009000DE
:1010800014E0F519802790002CE0FDE4FF11348F67
:1010900019801A31488F198014900014E004F51952
:1010A00090002CE0FFE5198FF08485F01990001472
:1010B000E06519601FE519F0E02415F582E43400BD
:1010C000F583E0FF3133900055E004F070069000A6
:1010D00054E004F0300303D20822D2061207D6C22D
:1010E000E822900028E0D3940F40087DFA7C007F2E
:1010F0000F800C900028E0C39401FF7DFA7C00ABC8
:1011000007EC540FC454F0FFE51C540F4FF51CEBD3
:10111000540FFFE51C54F04FF51CAD1C7F04020D6D
:10112000303003059000338003900035A3E0900039
:1011300028F022E4F51DEF547FFFE51D54804FF5A4
:101140001DAD1D7F05020D30D390005CE094019031
:10115000005BE09400400690005AE0FF22900057A8
:10116000E004FF90002CE0FEEF8EF084AFF022AEA2
:10117000071FEED3940040157C007D2DED1DAA04C1
:1011800070011CD39400EA940040E480EF22D390D5
:10119000005CE0940090005BE09400400CA3E0242D
:1011A000FFF090005BE034FFF0900026E02401FFA8
:1011B000900025E03400FE90003DE0FCA3E0FD122D
:1011C0000457900025ECF0A3EDF0900037E070029A
:1011D000A3E0600A900025E07002A3E07015900083
:1011E00057E004FF90002CE0FEEF8EF08490005753
:1011F000E5F0F022900014E0900057F0E490002514
:10120000F0A3F022900037E07002A3E0600FD390CB
:10121000005CE0940090005BE094004004E4FEFF7A
:1012200022900025E0FCA3E0FD4C7003FEFF22C3EA
:1012300090003EE09DFF90003DE09CFE22EF25E007
:101240005406FFE5B354F94FF5B3228F1AE4FF12A9
:101250000CA98F1BE51AB40105431B028003531B25
:10126000FDAD1BE4FF020D308F49E4FF120CA98F86
:101270004AE54914600C14601124027013534AF7B4
:10128000800E434A08534AFB8006434A08434A04F7
:10129000AD4AE4FF020D30E4F549EF24FE5403FFAC
:1012A000E54954FC4FF549AD497F03020D309000EC
:1012B00047A3E0FF8F497F06120CA98F4AE54954E6
:1012C0000325E0FFE54A54F94FF54AAD4A7F06028F
:1012D0000D308F497F06120CA98F4AE54960092419
:1012E000FE700D434A208003534ADF534AF78006BD
:1012F000534ADF434A08AD4A7F06020D30EF543FA0
:10130000F549AD497F1C020D30120CA58F4AE54905
:101310007F0060027F01EF540125E025E0FFE54AF0
:1013200054FB4FF54AAD4A7F1D020D30120CA58FBC
:101330004AE5497F0060027F01EF540125E0FFE5A7
:101340004A54FD4FF54AAD4A7F1D020D30715AEFE8
:10135000540EFFE4C313EF13FF22C2E97FFF120F05
:10136000F1D2E9228F5E8B5F8A60896175660185A3
:101370005F64E55E14600C24FB600824FE601424A6
:1013800008702B120FD38F628F63C2E9E55E240AC7
:10139000FF8016714D8F5EE55EC3940750101200FA
:1013A000468F628F63C2E97F61120FF18005E4F519
:1013B00063F562E5647027856167E4F5E7E56670CB
:1013C00008A867A66505678003E4F566E5E65402AC
:1013D00060FA85E765D562E2A867A665818FE56456
:1013E0006401703A856067856168E4F5E7E56670D9
:1013F00013856882856783E565F00568E568700296
:1014000005678003E4F566E5E6540260FA85E76562
:10141000D562D7856882856783E565F08071E5646C
:1014200064FE7029856167E4F5E7E5667009A867E1
:10143000E565F205678003E4F566E5E6540260FAC7
:1014400085E765D562E1A867E565F28042855F675B
:10145000856068856169E4F5E7E5667018AB67AAA1
:1014600068A969E56512041174012569F569E43517
:1014700068F5688003E4F566E5E6540260FA85E7FE
:1014800065D562D2AB67AA68A969E565120411D275
:10149000E9E55EFEE563FF22C2E97FE2120FF1D2C9
:1014A000E922C2E97FE1120FF1D2E922EF6009E5FA
:1014B000A3448054F7F5A32253A37722E5AD7F011F
:1014C00030E3027F0222EF5407FFE5AD54F84FF5F9
:0214D000AD224B
:00000001FF
