:100144000D0A48656C6C6F20576F726C64210D0A40
:0101540000AA
:06001C00AE0712010722ED
:0401CB0012000322F9
:1000E2008B0E8A0F8910AB0EAA0FA91012012B607A
:1000F200130510E5107002050F14F912012BFF12FF
:05010200001C80E22258
:1000B5007593D77594FE7F0412006F120185BF02F8
:1000C500FAD2AF7BFF7A0179441200E21201CFEF39
:0D00D50060FA75B0111201CB12001C80EF13
:10016600EF6009E5A3448054F7F5A32253A3772251
:10015500EF5401C4333354C0FFE5A354B74FF5A39F
:010165002277
:0F017600EF5403C454F0FFE5A354C74FF5A32281
:0B018500E5AD30E3047F0280027F0143
:01019000224C
:0C019100EF5407FFE5A354F04FF5A32244
:0601BF00E5AD5480FF22B3
:0601C500E5AD5440FF22ED
:0C019D00EF5407FFE5AD54F84FF5AD221C
:03002300020026B2
:10002600C0E0C0D075D000C000309819C298E5086D
:10003600C3940850107411250CF8A699E50C0454C5
:1000460007F50C050830991AC299E509D3940140C1
:100056000F7419250BF8E6F599E50B045407F50B13
:090066001509D000D0D0D0E03221
:10006F00C2ACE4F50BF50DF509F50AF50CF508D260
:10007F009CC29FD29E43878043D880EF24FC60139D
:10008F0024FE60091470127C037DF780107C037DC1
:10009F00F3800A7C037DCC80047C037DE68DAA8CE3
:0500AF00BAC299D2ACB9
:0100B4002229
:10010700E509D3940850F9C2ACE50970048F9980CA
:100117000E7419250DF8A607E50D045407F50D050E
:0401270009D2AC222B
:0301CF00AF082254
:0A01B500E50970037F01227F00229C
:10000300E50860FCC2AC7411250AF8E6FFE50A04B2
:080013005407F50A1508D2ACF0
:01001B0022C2
:030000000201A951
:0C01A900787FE4F6D8FD7581200200B5D7
:10012B00BB010689828A83E0225002E722BBFE02D2
:09013B00E32289828A83E4932205
:00000001FF
