:10021F000D456E746572204D61696E204C6F6F7065
:10022F00210D0A000D45786974204D61696E204CCF
:07023F006F6F70210D0A0032
:1002B6001203FED2AF7BFF7A02791F12026D120380
:0A02C600637BFF7A02793302026DB8
:0603FE0012033F02002182
:10033F007593D77594FE7F041201A41203C6BF02F2
:02034F00FA2290
:0100210022BC
:1003630012001EEF60FA75B011120396120410808A
:01037300EF9A
:1003A700EF6009E5A3448054F7F5A32253A377220E
:10037400EF5401C4333354C0FFE5A354B74FF5A37E
:010384002256
:0F03B700EF5403C454F0FFE5A354C74FF5A3223E
:0B03C600E5AD30E3047F0280027F0100
:0103D1002209
:0C03D200EF5407FFE5A354F04FF5A32201
:06040400E5AD5480FF226B
:06040A00E5AD5440FF22A5
:0C03DE00EF5407FFE5AD54F84FF5AD22D9
:03002300020113C4
:10011300C0E0C0D075D000C000309819C298E52166
:10012300C394085010742F2525F8A699E525045487
:1001330007F525052130991AC299E522D394014088
:100143000F74372524F8E6F599E524045407F524BC
:090153001522D000D0D0D0E0321A
:1001A400C2ACE4F524F526F522F523F525F521D294
:1001B4009CC29FD29E43878043D880EF24FC601367
:1001C40024FE60091470127C037DF780107C037D8B
:1001D400F3800A7C037DCC80047C037DE68DAA8CAD
:0501E400BAC299D2AC83
:0101E90022F3
:10029200E522D3940850F9C2ACE52270048F99800C
:1002A2000E74372526F8A607E526045407F5260519
:0402B20022D2AC2286
:03001E00AF2122ED
:0A03EA00E52270037F01227F00224C
:1002D000E52160FCC2AC742F2523F8E6FFE523047A
:0802E0005407F5231521D2ACEF
:0102E80022F3
:1003180011083031323334353637383941424344A5
:0303280045460047
:10000300EF1FAA0670011E4A60107C007D82ED1D61
:0A001300AA0470011C4A60E880F4A2
:01001D0022C0
:10038500C3EE648094805008C3E49FFFE49EFE2280
:010395002245
:10035100C3EE6480948050057EFF7FFF227E007F84
:02036100012277
:0800B2008F198B1A8A1B891CAF
:1000BA00051CE51C7002051B12015CEF3395E0F587
:1000CA001E8F1F751D01C3E5196480F8E51D648044
:1000DA00985031AB1A051CE51CAA1B7002051B12AD
:1000EA00015CEFFD3395E0FCE51FC4F8540FC868C6
:1000FA00FFE51EC454F048FEEF2DF51FEE3CF51E39
:08010A00051D80C2AE1EAF1FEF
:0101120022CA
:06015C0014F91202E9FF94
:10016200C3EF648094B0400DD3EF648094B950051E
:10017200EF24D0FF22C3EF648094C1400DD3EF641B
:100182008094C65005EF24C9FF22C3EF648094E136
:10019200400DD3EF648094E65005EF24A9FF227F3F
:0201A200002239
:10032C008E2A8F2BE52AFFE4FD1201EAAF2BE4FDA8
:03033C000201EAD1
:0401EA008F2C8D2D9C
:1001EE00E52C54F0FF3395E0FEEF7804CEA2E71332
:1001FE00CE13D8F82408F8E6FF120410E52C540F9D
:10020E002408F8E6FF120410E52D6004FF12041016
:01021E0022BD
:0304100002029253
:10026D008B278A288929AB27AA28A9291202E96098
:10027D00130529E5297002052814F91202E9FF1268
:05028D00041080E222D4
:10030200C3EF648094E1400DD3EF648094FA50050A
:06031200EF24E0FF2222AF
:03000000020026D5
:0C002600787FE4F6D8FD75813E02006D85
:1002E900BB010689828A83E0225002E722BBFE0213
:0902F900E32289828A83E4932246
:1003960010000B1203F4BF0D027F0A020246AF2EB5
:0103A6002234
:100032000202B6E493A3F8E493A34003F68001F22C
:1000420008DFF48029E493A3F85407240CC8C333CF
:10005200C4540F4420C8834004F456800146F6DF9E
:10006200E4800B0102040810204080900318E47E13
:10007200019360BCA3FF543F30E509541FFEE49393
:10008200A360010ECF54C025E060A840B8E493A35A
:10009200FAE493A3F8E493A3C8C582C8CAC583CA85
:1000A200F0A3C8C582C8CAC583CADFE9DEE780BE3D
:01032B0000D1
:10024600EFB40A07740D120251740A309811A89976
:10025600B8130CC2983098FDA899C298B811F63018
:0702660099FDC299F59922F0
:0A03F4003098FDAF99C2987E0022F8
:00000001FF
