:08000300120412D2AF02040A3C
:0C02B600012900012A0001270001280096
:03000B0002021FCF
:04021F00C0E0C0D0AB
:100223000527E527C39408400675290175270005AE
:0E02330028E528C394514006752A017528005D
:05024100D0D0D0E03236
:0604120012034C02041865
:10034C007593D77594FE5389F0D2A9D28C7F040291
:02035C0001A4FA
:06041800E4F529F52A229B
:1003A30012042AEF600975B01112039212042D2270
:10000E00E52AB40105E4F52AB283E529B40105E435
:05001E00F529B2822269
:08040A001203A312000E80F89A
:1003B300EF6009E5A3448054F7F5A32253A3772202
:10037000EF5401C4333354C0FFE5A354B74FF5A382
:01038000225A
:0F03C300EF5403C454F0FFE5A354C74FF5A32232
:0B03D200E5AD30E3047F0280027F01F4
:0103DD0022FD
:0C03DE00EF5407FFE5A354F04FF5A322F5
:06041E00E5AD5480FF2251
:06042400E5AD5440FF228B
:0C03EA00EF5407FFE5AD54F84FF5AD22CD
:03002300020113C4
:10011300C0E0C0D075D000C000309819C298E52166
:10012300C39408501074332525F8A699E525045483
:1001330007F525052130991AC299E522D394014088
:100143000F743B2524F8E6F599E524045407F524B8
:090153001522D000D0D0D0E0321A
:1001A400C2ACE4F524F526F522F523F525F521D294
:1001B4009CC29FD29E43878043D880EF24FC601367
:1001C40024FE60091470127C037DF780107C037D8B
:1001D400F3800A7C037DCC80047C037DE68DAA8CAD
:0501E400BAC299D2AC83
:0101E90022F3
:10029200E522D3940850F9C2ACE52270048F99800C
:1002A2000E743B2526F8A607E526045407F5260515
:0402B20022D2AC2286
:03042A00AF2122DD
:0A03F600E52270037F01227F002240
:1002F100E52160FCC2AC74332523F8E6FFE5230455
:080301005407F5231521D2ACCD
:0103090022D1
:1002C20011083031323334353637383941424344FC
:0302D2004546009E
:1002D600EF1FAA0670011E4A60107C007D82ED1D8C
:0A02E600AA0470011C4A60E880F4CD
:0102F00022EB
:10038100C3EE648094805008C3E49FFFE49EFE2284
:010391002249
:10035E00C3EE6480948050057EFF7FFF227E007F77
:02036E0001226A
:0800B2008F198B1A8A1B891CAF
:1000BA00051CE51C7002051B12015CEF3395E0F587
:1000CA001E8F1F751D01C3E5196480F8E51D648044
:1000DA00985031AB1A051CE51CAA1B7002051B12AD
:1000EA00015CEFFD3395E0FCE51FC4F8540FC868C6
:1000FA00FFE51EC454F048FEEF2DF51FEE3CF51E39
:08010A00051D80C2AE1EAF1FEF
:0101120022CA
:06015C0014F912030AFF72
:10016200C3EF648094B0400DD3EF648094B950051E
:10017200EF24D0FF22C3EF648094C1400DD3EF641B
:100182008094C65005EF24C9FF22C3EF648094E136
:10019200400DD3EF648094E65005EF24A9FF227F3F
:0201A200002239
:100339008E2E8F2FE52EFFE4FD1201EAAF2FE4FD8B
:030349000201EAC4
:0401EA008F308D3194
:1001EE00E53054F0FF3395E0FEEF7804CEA2E7132E
:1001FE00CE13D8F82408F8E6FF12042DE530540F7C
:10020E002408F8E6FF12042DE5316004FF12042DD8
:01021E0022BD
:03042D0002029236
:10026D008B2B8A2C892DAB2BAA2CA92D12030A605E
:10027D0013052DE52D7002052C14F912030AFF123A
:05028D00042D80E222B7
:10032300C3EF648094E1400DD3EF648094FA5005E9
:06033300EF24E0FF22228E
:03000000020026D5
:0C002600787FE4F6D8FD75814202006D81
:10030A00BB010689828A83E0225002E722BBFE02F1
:09031A00E32289828A83E4932224
:1003920010000B120400BF0D027F0A020246AF32A8
:0103A2002238
:10003200020003E493A3F8E493A34003F68001F2E1
:1000420008DFF48029E493A3F85407240CC8C333CF
:10005200C4540F4420C8834004F456800146F6DF9E
:10006200E4800B01020408102040809002B6E47E76
:10007200019360BCA3FF543F30E509541FFEE49393
:10008200A360010ECF54C025E060A840B8E493A35A
:10009200FAE493A3F8E493A3C8C582C8CAC583CA85
:1000A200F0A3C8C582C8CAC583CADFE9DEE780BE3D
:0102D5000028
:10024600EFB40A07740D120251740A309811A89976
:10025600B8130CC2983098FDA899C298B811F63018
:0702660099FDC299F59922F0
:0A0400003098FDAF99C2987E0022EB
:00000001FF
