:10000000020E9B157615761576A876A60308A6022D
:1000100008A601E5762403F8860308E6FA08E6F95F
:100020001203D1FF7E00A876860308E6FA08E6F9F7
:10003000783D7C807D011203AB90801C7401F07FC1
:10004000FFE5762406F57622AF3B22020FA57D70F0
:0F0050007F07121455EF5470FF2222020F272250
:100063000205168B4F8A508951E4F55BAB58AA59A8
:10007300A95A120417AB4FAA50A9519000011203B9
:10008300EA640660030201599000021203EA24DFC6
:10009300606C1460030202D8755B01AB4FAA50A9D0
:1000A300519000041203EA75F007A424C2F582E517
:1000B300F03415F583E493FB740193FA740293F916
:1000C300C003C002C001AB52AA53A954120429AB06
:1000D3004FAA50A9519000041203EA75F007A42413
:1000E300C5F582E5F03415F583E493FF900005121E
:1000F30003EAFEEFC39E50028052AF06804E755B4B
:1001030001AB4FAA50A9519000041203EA75F007FE
:10011300A424BFF582E5F03415F583E493FB740161
:1001230093FA740293F9C003C002C001AB52AA53FD
:10013300A954120429AB4FAA50A9519000051203E8
:10014300EAFF7409C39F50047F098000AB55AA5688
:10015300A957EF0201EAAB4FAA50A9511203D120CC
:10016300E5030202D89000011203EA24FE6053144F
:10017300700302020624FA70030202A614607614C6
:10018300700302025F240A60030202D8755B01E474
:100193009080ABF09080AAF07B017A8079AAC003AB
:1001A300C002C001AB52AA53A954120429AB55AAE9
:1001B30056A9577403120417AB58AA59A95A040233
:1001C30002C1755B01E49080AAF07B017A8079AA71
:1001D300C003C002C001AB52AA53A954120429ABF5
:1001E30055AA56A9577401120417AB58AA59A95A0C
:1001F30074040202C1755B01AB58AA59A95A74056C
:100203000202C1755B01AB4FAA50A95190000412C1
:1002130003EAFF74017E00A807088005C333CE33C9
:10022300CED8F9FFEF55757F0060027F019080AA59
:10023300EFF07B017A8079AAC003C002C001AB5200
:10024300AA53A954120429AB55AA56A957740112EB
:100253000417AB58AA59A95A74048062755B01ABA1
:100263004FAA50A9519000031203EAB4011690005B
:10027300041203EAFF7401A807088002C333D8FC01
:10028300427580159000041203EAFF7401A8070861
:100293008002C333D8FCF45275AB58AA59A95A74D7
:1002A30005801BAB4FAA50A9519000021203EAFF2D
:1002B300B40310755B01AB58AA59A95A740512040B
:1002C300178012EFB4020EAB58AA59A95A7405123B
:1002D3000417755B01AF5B22E709F608DFFA804676
:1002E300E709F208DFFA803E88828C83E709F0A3EE
:1002F300DFFA8032E309F608DFFA8078E309F208CF
:10030300DFFA807088828C83E309F0A3DFFA8064CC
:1003130089828A83E0A3F608DFFA805889828A8378
:10032300E0A3F208DFFA804C80D280FA80C680D442
:10033300806980F28033801080A680EA809A80A84A
:1003430080DA80E280CA803389828A83ECFAE4937C
:10035300A3C8C582C8CCC583CCF0A3C8C582C8CC0A
:10036300C583CCDFE9DEE7800D89828A83E493A32A
:10037300F608DFF9ECFAA9F0EDFB2289828A83EC17
:10038300FAE0A3C8C582C8CCC583CCF0A3C8C58294
:10039300C8CCC583CCDFEADEE880DB89828A83E4CC
:1003A30093A3F208DFF980CC88F0EF60010E4E6072
:1003B300C388F0ED2402B4040050B9F582EB2402A3
:1003C300B4040050AF232345822390032B73BB0156
:1003D3000689828A83E0225002E722BBFE02E322DF
:1003E30089828A83E49322BB010CE58229F582E5A5
:1003F300833AF583E0225006E92582F8E622BBFE24
:1004030006E92582F8E222E58229F582E5833AF5B9
:1004130083E49322BB010689828A83F0225002F788
:1004230022BBFE01F322BB011A89828A83D0F0D05A
:10043300E0F8D0E0F9D0E0FAD0E0FBE8C0E0C0F0AB
:100443000204EF5016E9F8D083D082D0E0F9D0E06F
:10045300FAD0E0FBC082C0830204DDBBFE16E9F8DC
:10046300D083D082D0E0F9D0E0FAD0E0FBC082C0E4
:100473008302050122BB010DE58229F582E5833A5A
:10048300F5830204E65007E92582F80204D4BBFE93
:1004930007E92582F80204F8E58229F582E5833A23
:1004A300F58302050AD083D082F8E49370127401B5
:1004B30093700DA3A393F8740193F5828883E47377
:1004C3007402936860EFA3A3A380DF8A838982E425
:1004D30073E6FB08E6FA08E6F922EBF608EAF60803
:1004E300E9F622E0FBA3E0FAA3E0F922EBF0A3EAAA
:1004F300F0A3E9F022E2FB08E2FA08E2F922EBF2C8
:1005030008EAF208E9F222E493FB740193FA740215
:1005130093F922C0E0C0F0C083C082C0D075D00080
:10052300C000C001C002C003C004C005C006C007AC
:1005330090C7A8E01204A8057100057D040586088C
:1005430005A10C05AD1005B91805C51C05D4200679
:10055300562405D42806562C05D43006563405D423
:100563003806563C05D440065644000006EE90C7B4
:10057300AB7401F01209E70206EE90C7AB7402F008
:100583000206EE90C7AB7404F07508007509007598
:100593000A00750B00750C00754E000206EE90C73D
:1005A300AB7408F01213B60206EE90C7AB7410F0EA
:1005B3001214700206EE90C7A97401F01210900293
:1005C30006EE90C7AA7401F0750B0012101E020606
:1005D300EE90C7A8E024E8131313541FF569FF74C2
:1005E30001A807088002C333D8FC90C7A9F0E569C6
:1005F300547F75F002A424B4F974C735F0AF01F544
:100603006B8F6CE569547F75F080A4FFC374009F02
:10061300F974C795F0AF01F56D8F6EE569547F7579
:10062300F002A424B5F974C735F0AF01F56F8F70EC
:10063300FA157615761576A876760108A60208A629
:1006430001AA6DA96E7B01C002E56975F003A424BC
:100653000A807C90C7A8E024E4131313541FF569A0
:10066300FF7401A807088002C333D8FC90C7AAF01F
:10067300E569547F75F002A424C4F974C735F0AF5B
:1006830001F56B8F6CE56975F080A4FFC374C09F9F
:10069300F974C695F0AF01F56D8F6EE56975F002DB
:1006A300A424C5F974C735F0AF01F56F8F70FA153F
:1006B3007615761576A876760108A60208A601AA0D
:1006C3006DA96E7B01C002E56975F003A42419F8D6
:1006D30008E6FA08E6F5828A83D0021204D28F6A0A
:1006E300AB70AA6FAD6CAC6B1212FCD007D006D006
:1006F30005D004D003D002D001D000D0D0D082D016
:1007030083D0F0D0E0327553FF75540075555E7594
:1007130056FF75570075585A7559FF755A15755B0D
:10072300257BFF7A1179687F01120B007BFF7A1317
:1007330079FD7D207F81120D507BFF7A0079037D47
:10074300207F02120D50121212E49080A5F0D2AF56
:10075300120048BF04FA90801CE0600812132CE4D6
:1007630090801CF09080A5E024FE6070147003025A
:10077300086024FE7003020839147003020855242C
:100783000570CD90809FE070C79080A7E0D394015F
:100793004004E4F080069080A7E004F09080A7E096
:1007A3002418F582E43480F583E0FF12151390805A
:1007B3007E7402F01212CA90809EE060937F0A7EDC
:1007C3000012135B90805DE06086A3E06407708095
:1007D3007DF47C017F081213DB0208789080A8E087
:1007E3007002A3E0703F9080A8744EF0A37420F0D1
:1007F30090807E7409F01212CA90809EE060167F8A
:100803000A7E0012135B90805DE06009A3E0640A36
:10081300700302075390801BE070057404F0802D71
:1008230090801B807D9080A9E024FFF09080A8E059
:1008330034FFF00207531214D390809EE0600E90B1
:10084300801B7404F09080A514F00207531211CF9B
:1008530080031214D3E49080A5F00207537FF47E43
:100863000112135B90805DE0602FA3E0FF640760DB
:1008730004EFB408247B017A80795E7D201211E1B4
:100883009080A8744EF0A37420F090801B7404F041
:100893009080A57402F002075390801BE0D394006C
:1008A3004006E014F00207531211CFE49080A5F044
:1008B3000207538F5D8B5E8A5F8960756501855E74
:1008C30063E55D14600C24FB600824FE60142408B7
:1008D300702B12153F8F618F62C291E55D240AFF71
:1008E30080161215538F5DEFC394075010121589AC
:1008F3008F618F62C2917F611215358005E4F562C5
:10090300F561E5637027856066E4F5E5C2C0E565DA
:100913007008A866A66405668003E4F56530C0FD2B
:1009230085E564D561E3A866A6640209DEE5636430
:10093300017039855F66856067E4F5E5C2C0E565EA
:100943007013856782856683E564F00567E56770E4
:100953000705668003E4F56530C0FD85E564D56170
:10096300D8856782856683E564F0806FE56364FEFE
:100973007028856066E4F5E5C2C0E5657009A86680
:10098300E564F205668003E4F56530C0FD85E56442
:10099300D561E2A866E564F28041855E66855F679E
:1009A300856068E4F5E5C2C0E5657018AB66AA67C3
:1009B300A968E56412041774012568F568E43567CE
:1009C300F5678003E4F56530C0FD85E564D561D343
:1009D300AB66AA67A968E564120417D291E55DFEC8
:1009E300E562FF2290C7E8E0F548A3E0F549A3E0FC
:1009F300F54BA3E0F54AA3E0F54C90C7EEE0F54DC7
:100A0300A3E0D394004003754DFFE54854606003B1
:100A1300020ADEE549B40B004003020ADC900A2710
:100A2300F8282873020A4B020A4E020ADC020A4E15
:100A3300020ADC020A89020A48020ADC020A90025C
:100A43000AAD020ACF020BD2020C9BE54824FE60DA
:100A53001B2402702FE54BB4010FE549B401055384
:100A630038FD805F433802805A020AF9E54B701261
:100A7300E549B40104E4FD80027D01AF4C1212503C
:100A8300804180728070753B03E4F53922E53B2495
:100A9300FC600E047012E490C700F090C7B504F038
:100AA3002290C700E5398029804CE54B14600B0484
:100AB3007018753B03E4F5398009753B044338012D
:100AC30075390190C7B47402F022802A90C700E5FB
:100AD3003AF090C7B57401F022801BE5485460FFDB
:100AE300BF2013E54D600CE54820E70790C7C574A8
:100AF300FFF02202101E90C7B47411F0228B508AAB
:100B0300518952752BFF752C15752D95752EFF7513
:100B13002F157530C67531FF75321675336175340F
:100B230004753503753609753704753B02E4F538EA
:100B3300F54EF539F53A8B3C8A3D893E85533F8521
:100B430054408555418556428557438558448559B8
:100B530045855A46855B47EF601590C7D6E0440844
:100B6300F07F327E001214FF90C7D6E054F7F0D224
:100B7300BBD2BC90C7AE741DF090C7AC7401F090AB
:100B8300C7A9741FF090C7AD7401F090C7AA741F72
:100B9300F090C7817410F0A37420F0A37430F0A315
:100BA3007440F0A37450F090C78874C0F0A374101D
:100BB300F0A37420F0A37430F0A37440F0A3745036
:100BC300F090C7DE7401F0A3F0E4A3F0A3F022E5F4
:100BD3004A24FE602A14603E24FA4003020C902447
:100BE300086003020C97AB2BAA2CA92DE54DC394E7
:100BF300125007AF4DAD07020C8A7D12020C8AAB6F
:100C03002EAA2FA930E54DC394295006AF4DAD0749
:100C130080027D298071E54B7016FB7A007934E5FB
:100C23004DC394045006AF4DAD0780027D04805739
:100C3300E54B14C394025055AB31AA32A93375F076
:100C430003E54BA424FDF582E5F034FFF58312049C
:100C530078C003C002C001AB31AA32A933E54B14FB
:100C630075F003A4F58285F0831204781203D1FF93
:100C7300E54DC39F5006AF4DAD0780051203D1FF6D
:100C8300FDD001D002D0031214BC02109090C7B45F
:100C93007411F02212101E22E53BB40320E54C60D0
:100CA30003020D49AB2EAA2FA9309000071203EAC5
:100CB3005440C41313540390C701F0807CE53B6494
:100CC300046003020D4990C701F0E548247F6036B4
:100CD3001460362402706DE53830E10890C7007463
:100CE30002F08005E490C700F090C700E0FFAB2E50
:100CF300AA2FA9309000071203EA5440C4131354D7
:100D030003FEEF4E8033E48030E54C30E70D547F33
:100D130075F002A424B4F974C7800DE54C547F75B3
:100D2300F002A424C4F974C735F0AF01F5718F72D2
:100D3300857282857183E0540190C700F090C7B536
:100D43007402F022800090C7B47411F0228B4F8A92
:100D5300508951AC07EC547FFF14FE7401A80708B7
:100D63008002C333D8FCF552E4EC30E739AA50A92A
:100D730051EE75F003A4240DF8A64F08A60208A6A9
:100D830001E5514550454F90C7AC600CE04552F02A
:100D930090C7DEE04552F022E0FFE552F4FEEF5E3D
:100DA300F090C7DE804AAA50A951EE75F003A4243F
:100DB3001CF8A64F08A60208A601E5514550454F69
:100DC30090C7AD601FE04552F090C7DFE04552F099
:100DD300EC75F002A424C5F974C735F08982F58354
:100DE30074FFF022E0FFE552F4FEEF5EF090C7DF00
:100DF300E05EF0228B548A558956AD54C2918FE53B
:100E0300C2C0ED7018855659A859E6FE055930C081
:100E1300FD85E5588EE5C2C0D557ED8072ED6401BE
:100E2300702585555985565A855A82855983E0FE22
:100E3300055AE55A7002055930C0FD85E5588EE51F
:100E4300C2C0D557E38048ED64FE7018855659A893
:100E530059E2FE055930C0FD85E5588EE5C2C0D57F
:100E630057ED802B85545985555A85565BAB59AA46
:100E73005AA95B1203D1FE7401255BF55BE4355A75
:100E8300F55A30C0FD85E5588EE5C2C0D557DE3032
:100E9300C0FD85E558D29122787FE4F6D8FD7581AF
:100EA30076020EE2020709E493A3F8E493A3400356
:100EB300F68001F208DFF48029E493A3F8540724B1
:100EC3000CC8C333C4540F4420C8834004F4568071
:100ED3000146F6DFE4800B010204081020408090F5
:100EE300138AE47E019360BCA3FF543F30E50954A9
:100EF3001FFEE493A360010ECF54C025E060A84019
:100F0300B8E493A3FAE493A3F8E493A3C8C582C80F
:100F1300CAC583CAF0A3C8C582C8CAC583CADFE9E4
:100F2300DEE780BEC0E0C0F0C083C082C0D075D011
:100F330000C000C001C002C003C004C005C006C099
:100F43000790C7D6E030E7287480F0E53830E12316
:100F5300E04402F00000E0FF5307FD430701EFF018
:100F63007F077E001214FF90C7D6E054FEF0800383
:100F7300433804E53830E005753B048003753B02D4
:100F8300AA43A9441204CED007D006D005D004D07A
:100F930003D002D001D000D0D0D082D083D0F0D003
:100FA300E032C0E0C0F0C083C082C0D075D000C0C2
:100FB30000C001C002C003C004C005C006C00712C0
:100FC300004EEF24F0601424D0601E242070319072
:100FD300809FE4F090809E04F08025121567908036
:100FE3009FE4F090809EF08017121549EF700B7B01
:100FF300017A80795E12158F80EF90805D7401F025
:10100300D007D006D005D004D003D002D001D00041
:10101300D0D0D082D083D0F0D0E0321576157615BB
:1010230076A8767600087600087674157615761518
:1010330076A87676000876000876717B007A0079C8
:1010430048853E82853D831204D2EF14602A1460E2
:101053002E14603824FE602004702BAB71AA72A991
:1010630073E54DC395745006AF4DAD078004AF745F
:10107300AD071214BC02109090C7B47402F0229012
:10108300C7C574FFF02290C7B47411F022E50B704A
:101093001CE54EB4010890C7B4E04410F022754E2D
:1010A30001E490C7B5F090C7B47402F022E50BC316
:1010B300950CAF0C5002AF0BE4FEEEC39F501EAB7A
:1010C30008AA09A90A8E827583001203EAFD740037
:1010D3002EF582E434C7F583EDF00E80DDEFC39582
:1010E3000C5003754E0190C7B5EFF0250AF50AE4DD
:1010F3003509F509C3E50B9FF50B228F538B548AF2
:10110300558956E553547F75F080A4FFC374009F3F
:10111300F974C795F0AF01F5598F5AE553547F75AC
:10112300F002A424B5F974C735F0AF01F55B8F5C09
:10113300E4F558E558C395575021AB54AA55A95621
:101143008558827583001203EAFFE55A2558F58214
:10115300E43559F583EFF0055880D8855C82855BCB
:1011630083E557F022157615761576A876A603083B
:10117300A60208A6011576A87608860308E6FA08EB
:10118300E6F9C003C002E5762404F8860308E6FA0C
:1011930008E68B528A53F554E5762407F88603084C
:1011A300E6FA08E68B558A56F557755800755900C7
:1011B30085765AD002D003120066BF0106A876E6F0
:1011C300FF80027F00E576240AF5762290801D7465
:1011D30008F0A37401F07B007A007900E4FD8B4FE3
:1011E3008A5089518D521214E99080A67401F0AF90
:1011F300527E00781D7C80FDAB4FAA50A95112038B
:10120300AB7B017A80791D7557207F010210FE7533
:10121300E610D2927D20E4FF12157B7B017A807960
:10122300A0E4FF12128D7B017A8079A07F0612124F
:101233008D12004E12155D121567C290E490809EC8
:10124300F090805DF07F01121438D2B922EF547F01
:101253001425E0FEEF30E70BEE7E0024B6F9EE3402
:10126300C7800BAF067E0074C62FF9EE34C7AF01FB
:10127300F5718F72BD010A8572828571837401F0E5
:1012830022857282857183E4F0228F4F8B508A51BD
:101293008952E54F14600A24FB5019600424067038
:1012A3002512153F8F57E54F242AFFAB50AA51A9AA
:1012B30052020DF7E54F240AFFAB50AA51A952126F
:1012C30003D1FD12145522C290E4FF12141BE490C3
:1012D300809EF07B017A80797E7D20121582754F86
:1012E30014D290AF4F154FEF70F9C29090809F7456
:1012F30001F090809FE070FA22A9078B828A83B95C
:10130300FF0474FFF022E930E7088D828C837401B7
:10131300F022E95460FFBF60088D828C837402F071
:1013230022E97002F022E9F02290803DE014601A75
:1013330024FE24FC501B2405701D7DF47C017FF4E6
:101343001213DB9080A57401F0229080A57406F03F
:10135300229080A57405F0228E4F8F50E490805D1B
:10136300F07F0112141BD290E5501550AE4F70025E
:10137300154F4E600F90805DE070097F017E001273
:1013830014FF80E4C2902241801C004180A60041EA
:10139300805D0041809F0041809E004280A84E20D6
:1013A30041801B044380180206514580A0BADA55D8
:1013B300133700E4FF5338FBE53BB40406E538304C
:1013C300E1010F753B05E5474546454560098547FE
:1013D300828546831204D222AB07EC540FC454F027
:1013E300FFE54F540F4FF54FEB540FFFE54F54F00C
:1013F3004FF54FAD4F7F04021455157615761576CC
:10140300A876A60308A60208A601E49080A6F07FAA
:1014130060E5762406F576228F51E4FF1214A48F3B
:1014230052E551B4010543520180035352FEAD52BC
:10143300E4FF0214558F4FE4FF1214A48F50E54FBD
:10144300B4010543500280035350FDAD50E4FF0245
:101453001455C291EF2420F5E5C2C030C0FDAFE5BD
:101463008DE5C2C030C0FD85E55DD29122753B029A
:10147300E4F539F53AF538E5414540453F6007AABB
:1014830040A9411204CE227FFA7E001214957FFAFE
:101493007E000000000000EF1F70011E144E70F26A
:1014A30022C2918FE5C2C030C0FDAFE5E4F5E5C2CD
:1014B300C030C0FDAFE5D291228B088A09890A8D1D
:1014C3000BAB2BAA2CA92D9000071203EAF50C22D3
:1014D300787E7C807D017B017A80793D7E007F2050
:1014E3001203AB0212CA7F507EC3EF1FAC0670011A
:1014F3001E4C60079080A6E070F02222AD07AC0678
:1015030012148A12148AED1D70011C144C70F122FE
:10151300EF547FFFE54F54804FF54FAD4F7F0502EA
:1015230014551576A876A60775D901A876E4F605AD
:1015330076228FE5C2C030C0FDAFE5227F031214CF
:10154300A4EF2402FF227F171214A4EF5401FF22F9
:10155300121571EF540EC313FF22C2917FE21215CD
:1015630035D29122C2917FE1121535D29122C291D7
:101573007FFF121535D29122EF2411FF0214558DEE
:10158300577FA0020DF77F601214A4227F08120870
:10159300B622120100020000002015197B00000191
:1015A300010200010600FF0900A101150025FF75D6
:1015B3000895200900810209009102C0FF15D8FF98
:1015C30015A718090229000101008032090400004F
:1015D3000203000000092110010001221800070581
:1015E3008103200001070502032000012A034E00A6
:1015F3006F007200640069006300200053006500FF
:101603006D00690063006F006E0064007500630085
:1016130074006F00720048034E006F007200640094
:10162300690063002000530065006D0069006300DA
:101633006F006E0064007500630074006F00720039
:1016430020005500530042002000520046002000B5
:101653004100640061007000740065007200FF15B2
:04166300EFFF161966
:00000001FF
