:020000040000FA
:1000000000080020D5000000E7000000E900000023
:1000100000000000000000000000000000000000E0
:10002000000000000000000000000000EB000000E5
:100030000000000000000000ED000000EF000000E4
:10004000F1000000F1000000F1000000F1000000EC
:10005000F100000000000000F1000000F1000000CD
:10006000F1000000F1000000F1000000F1000000CC
:10007000F1000000F1000000F1000000F1000000BC
:10008000F1000000F1000000F1000000F1000000AC
:10009000F1000000F1000000F1000000F10000009C
:1000A000F1000000F100000000000000000000006E
:1000B0000000000000000000000000000000000040
:1000C0000348854600F01CF8004800475101000035
:1000D00000080020074802680F210A430260064812
:1000E000804706480047FEE7FEE7FEE7FEE7FEE73B
:1000F000FEE700002405004025010000C1000000CB
:10010000064C0125064E05E02046E36807C82B4350
:1001100098471034B442F7D3FFF7D6FFA00200008F
:10012000A00200000648008D0006000F012805D13E
:10013000044805494860C8130449886170470000B5
:10014000C00F00F0DFFF07C000050040006C00405A
:1001500008B501200323022201460090002000F090
:1001600039F800BF0BA000F08BF800BF11E000F0E1
:1001700067F80446204600F073F8712C01D0512C2A
:1001800006D100BF06A000F07BF800BF00BFFEE76D
:1001900000BFECE7200A0D53746172743A2000002E
:1001A000200A0D45786974210A0D000010B58A00F7
:1001B00005231B07072424021B1984001A5110BDB4
:1001C00001210522120707231B02D2188300D150F8
:1001D00070470000F8B507460C4615461E462046F7
:1001E000FFF7EEFF00213046FFF7E0FF1048C46044
:1001F0004661069800280DD03846FFF7E1FF002140
:100200002846FFF7D3FF0A480561876001200849A7
:100210004031C8620748064948620420086001204E
:10022000054988600860002004498860F8BD000026
:100230000025004000509D000020004000210040AB
:1002400000BF054880680128FBD100200249886072
:1002500002488069C0B2704700210040002500407C
:100260000549C86100BF0549C9690129FBD10021C1
:10027000024AD16170470000002500400021004083
:1002800030B50346002528466D1C1C5C05E0204661
:10029000FFF7E6FF28466D1C1C5C002CF7D130BD33
:04000005000000C136
:00000001FF
