:10000000020FCF157715771577A877A60308A602F4
:1000100008A601E5772403F8860308E6FA08E6F95E
:100020001204B3FF7E00A877860308E6FA08E6F913
:10003000783D7C807D0112048D90801C7401F07FDE
:0A004000FFE5772406F5772222225F
:0F004B000211E17D707F071215DEEF5470FF2266
:03005B000210E5AB
:1000630002062990FFFD1205B6EBF0A3EAF0A3E91F
:10007300F090FFFF1205B6857583857682E4F090D4
:10008300000A1205DAE0FBA3E0FAA3E0F9E41204A4
:10009300F9857583857682A3E0FBA3E0FAA3E0F9F3
:1000A3009000011204CC640660030201CD900002AB
:1000B3001204CC24DF700302014B1460030203AF6C
:1000C3008575838576827401F0A3E0FBA3E0FAA330
:1000D300E0F99000041204CC75F007A42446F582DD
:1000E300E5F03417F583E493FB740193FA740293F8
:1000F300F9C003C002C0019000041205DAE0FBA3BB
:10010300E0FAA3E0F912050B857583857682A3E0F7
:10011300FBA3E0FAA3E0F99000041204CC75F00706
:10012300A42449F582E5F03417F583E493FF7E00B8
:100133009000051204CCFD7C00C3EF9DEE9C5002A1
:100143008076AE04AF0580708575838576827401F1
:10015300F0A3E0FBA3E0FAA3E0F99000041204CCBF
:1001630075F007A42443F582E5F03417F583E4938F
:10017300FB740193FA740293F9C003C002C00190A7
:1001830000041205DAE0FBA3E0FAA3E0F912050B81
:10019300857583857682A3E0FBA3E0FAA3E0F9905B
:1001A30000051204CCFF7E00C374099FE49E50082F
:1001B3007C007D097F0980009000071205DAE0FBCF
:1001C300A3E0FAA3E0F9EF0202EA8575838576825C
:1001D300A3E0FBA3E0FAA3E0F91204B320E50302D2
:1001E30003AF9000011204CC24FE605F147003027D
:1001F300028524FA700302035814606A1470030220
:100203000300240A60030203AF8575838576827435
:1002130001F0E49080ABF09080AAF07B017A8079C2
:10022300AAC003C002C0019000041205DAE0FBA3D8
:10023300E0FAA3E0F912050B9000071205DAE0FBE0
:10024300A3E0FAA3E0F974030202EA8575838576D5
:10025300827401F090000A1205DAE0FBA3E0FAA32E
:10026300E0F9E402038A8575838576827401F09050
:10027300000A1205DAE0FBA3E0FAA3E0F974040232
:10028300038A8575838576827401F0A3E0FBA3E07E
:10029300FAA3E0F99000041204CCFF74017E00A8D5
:1002A30007088005C333CE33CED8F9FFEF55787FE7
:1002B3000060027F019080AAEFF07B017A8079AA27
:1002C300C003C002C0019000041205DAE0FBA3E002
:1002D300FAA3E0F912050B9000071205DAE0FBA37D
:1002E300E0FAA3E0F974011204F990000A1205DAA6
:1002F300E0FBA3E0FAA3E0F9740402038A857583A3
:100303008576827401F0A3E0FBA3E0FAA3E0F99001
:1003130000031204CCB401169000041204CCFF7441
:1003230001A807088002C333D8FC427880159000E7
:10033300041204CCFF7401A807088002C333D8FC5D
:10034300F4527890000A1205DAE0FBA3E0FAA3E086
:10035300F974058032857583857682A3E0FBA3E07B
:10036300FAA3E0F99000021204CCFFB4031E8575D2
:10037300838576827401F090000A1205DAE0FBA30C
:10038300E0FAA3E0F974051204F98020EFB4021C2B
:1003930090000A1205DAE0FBA3E0FAA3E0F9740582
:1003A3001204F98575838576827401F085758385DA
:1003B3007682E0FF90000D0205B6E709F608DFFA42
:1003C3008046E709F208DFFA803E88828C83E709DA
:1003D300F0A3DFFA8032E309F608DFFA8078E30955
:1003E300F208DFFA807088828C83E309F0A3DFFAD6
:1003F300806489828A83E0A3F608DFFA80588982C1
:100403008A83E0A3F208DFFA804C80D280FA80C6A8
:1004130080D4806980F28033801080A680EA809A3D
:1004230080A880DA80E280CA803389828A83ECFAEA
:10043300E493A3C8C582C8CCC583CCF0A3C8C58246
:10044300C8CCC583CCDFE9DEE7800D89828A83E4EB
:1004530093A3F608DFF9ECFAA9F0EDFB2289828A6F
:1004630083ECFAE0A3C8C582C8CCC583CCF0A3C88B
:10047300C582C8CCC583CCDFEADEE880DB89828A0B
:1004830083E493A3F208DFF980CC88F0EF60010ED8
:100493004E60C388F0ED2402B4040050B9F582EB3A
:1004A3002402B4040050AF232345822390040D7328
:1004B300BB010689828A83E0225002E722BBFE0247
:1004C300E32289828A83E49322BB010CE58229F526
:1004D30082E5833AF583E0225006E92582F8E62295
:1004E300BBFE06E92582F8E222E58229F582E5834F
:1004F3003AF583E49322BB010689828A83F0225072
:1005030002F722BBFE01F322BB011A89828A83D040
:10051300F0D0E0F8D0E0F9D0E0FAD0E0FBE8C0E0BA
:10052300C0F00206025016E9F8D083D082D0E0F979
:10053300D0E0FAD0E0FBC082C0830205F0BBFE1618
:10054300E9F8D083D082D0E0F9D0E0FAD0E0FBC064
:1005530082C08302061422BB010DE58229F582E5E0
:10056300833AF5830205F95007E92582F80205E786
:10057300BBFE07E92582F802060BE58229F582E531
:10058300833AF58302061DD083D082F8E493701278
:10059300740193700DA3A393F8740193F582888378
:1005A300E4737402936860EFA3A3A380DF8A838953
:1005B30082E473E5762582F582E5753583F583B5A7
:1005C30075048582762210AF06858276F5752285BD
:1005D3008276F575D2AF22E5762582F582E575350B
:1005E30083F58322E6FB08E6FA08E6F922EBF60830
:1005F300EAF608E9F622E0FBA3E0FAA3E0F922EB2E
:10060300F0A3EAF0A3E9F022E2FB08E2FA08E2F938
:1006130022EBF208EAF208E9F222E493FB74019375
:10062300FA740293F922C0E0C0F0C083C082C0D044
:1006330075D000C000C001C002C003C004C005C023
:1006430006C00790C7A8E012058A06840006900436
:1006530006990806B40C06C01006CC1806D81C066A
:10066300E72007692406E72807692C06E7300769AE
:100673003406E73807693C06E74007694400000889
:100683000190C7AB7401F0120AFB02080190C7ABDB
:100693007402F002080190C7AB7404F0750800758A
:1006A3000900750A00750B00750C00754E000208F1
:1006B3000190C7AB7408F012151902080190C7AB7B
:1006C3007410F012156702080190C7A97401F012A3
:1006D300125A02080190C7AA7401F0750B00121098
:1006E3005B02080190C7A8E024E8131313541FF515
:1006F30069FF7401A807088002C333D8FC90C7A917
:10070300F0E569547F75F002A424B4F974C735F099
:10071300AF01F56B8F6CE569547F75F080A4FFC35F
:1007230074009FF974C795F0AF01F56D8F6EE5699D
:10073300547F75F002A424B5F974C735F0AF01F501
:100743006F8F70FA7B0190FFFD1205B6EBF0A3EA01
:10075300F0A3E9F0AA6DA96E7B01C002E56975F00B
:1007630003A4240A807C90C7A8E024E41313135441
:100773001FF569FF7401A807088002C333D8FC90F2
:10078300C7AAF0E569547F75F002A424C4F974C7BD
:1007930035F0AF01F56B8F6CE56975F080A4FFC38D
:1007A30074C09FF974C695F0AF01F56D8F6EE5695E
:1007B30075F002A424C5F974C735F0AF01F56F8F46
:1007C30070FA7B0190FFFD1205B6EBF0A3EAF0A3EC
:1007D300E9F0AA6DA96E7B01C002E56975F003A477
:1007E3002419F808E6FA08E6F5828A83D00212058E
:1007F300B48F6AAB70AA6FAD6CAC6B12145FD00789
:10080300D006D005D004D003D002D001D000D0D080
:10081300D082D083D0F0D0E0327553FF7554007589
:1008230055497556FF7557007558487559FF755AE0
:1008330016755B977BFF7A1179657F01120CF27B4A
:10084300FF7A1579867D207F81120E847BFF7A00E3
:1008530079037D207F02120E84121375E49080A524
:10086300F0D2AF1216A7BF04FA90801CE060081202
:10087300148FE490801CF09080A5E024FE60701437
:10088300700302097324FE700302094C14700302FF
:100893000968240570CD90809FE070C79080A7E021
:1008A300D394014004E4F080069080A7E004F09024
:1008B30080A7E02418F582E43480F583E0FF121664
:1008C3006E90807E7402F012142D90809EE06093EF
:1008D3007F0A7E001214BE90805DE06086A3E06410
:1008E3000770807DF47C017F0812154502098B9007
:1008F30080A8E07002A3E0703F9080A8744EF0A33C
:100903007420F090807E7409F012142D90809EE084
:1009130060167F0A7E001214BE90805DE06009A31A
:10092300E0640A700302086690801BE0700574049B
:10093300F0802D90801B807D9080A9E024FFF090B3
:1009430080A8E034FFF002086612164290809EE011
:10095300600E90801B7404F09080A514F00208666A
:100963001213328003121642E49080A5F002086647
:100973007FF47E011214BE90805DE0602FA3E0FF40
:1009830064076004EFB408247B017A80795E7D20DC
:100993001213449080A8744EF0A37420F090801B2F
:1009A3007404F09080A57402F002086690801BE046
:1009B300D394004006E014F0020866121332E49068
:1009C30080A5F00208668F5D8B5E8A5F896075651E
:1009D30001855E63E55D14600C24FB600824FE6002
:1009E300142408702C1216CD8F618F62C291E55DBD
:1009F300240AFF80171216B58F5DE55DC394075077
:100A03001012170D8F618F62C2917F611216C3801E
:100A130005E4F562F561E5637027856066E4F5E555
:100A2300C2C0E5657008A866A66405668003E4F5A0
:100A33006530C0FD85E564D561E3A866A664020A56
:100A4300F2E56364017039855F66856067E4F5E507
:100A5300C2C0E5657013856782856683E564F0052A
:100A630067E567700705668003E4F56530C0FD85BB
:100A7300E564D561D8856782856683E564F0806F18
:100A8300E56364FE7028856066E4F5E5C2C0E5654C
:100A93007009A866E564F205668003E4F56530C075
:100AA300FD85E564D561E2A866E564F28041855E73
:100AB30066855F67856068E4F5E5C2C0E565701823
:100AC300AB66AA67A968E5641204F974012568F5A1
:100AD30068E43567F5678003E4F56530C0FD85E5B7
:100AE30064D561D3AB66AA67A968E5641204F9D239
:100AF30091E55DFEE562FF2290C7E8E0F548A3E0DB
:100B0300F549A3E0F54BA3E0F54AA3E0F54C90C704
:100B1300EEE0F54DA3E0D394004003754DFFE548A7
:100B230054606003020BF2E549B40B004003020B6F
:100B3300F0900B3BF8282873020B5F020B62020B49
:100B4300F0020B62020BF0020B9D020B5C020BF036
:100B5300020BA4020BC1020BE3020C14020DCFE53E
:100B63004824FE601B2402702FE54BB4010FE549B6
:100B7300B401055338FD805F433802805A020C0DDF
:100B8300E54B7012E549B40104E4FD80027D01AF39
:100B93004C1213B3804180728070753B03E4F539C6
:100BA30022E53B24FC600E047012E490C700F09031
:100BB300C7B504F02290C700E5398029804CE54B86
:100BC30014600B047018753B03E4F5398009753B19
:100BD3000443380175390190C7B47402F022802AA6
:100BE30090C700E53AF090C7B57401F022801BE589
:100BF300485460FFBF2013E54D600CE54820E7072C
:100C030090C7C574FFF02202105B90C7B47411F053
:100C130022E54A24FE602A14603F24FA4003020CB2
:100C2300E724086003020CEEAB2BAA2CA92DE54D9B
:100C3300C394125007AF4DAD07020CE17D12020CB5
:100C4300E1AB2EAA2FA930E54DC394295006AF4D31
:100C5300AD0780027D29020CE1E54B7016FB7A009B
:100C63007934E54DC394045006AF4DAD0780027D42
:100C730004806BE54B14C394025069AB31AA32A9CB
:100C83003375F003E54BA424FDF582E5F034FFF55D
:100C93008312055AC003C002C001AB31AA32A93383
:100CA300E54B14FF75F003A4F58285F08312055A12
:100CB3001204B3FEE54DC39E5006AE4DAD0680183B
:100CC300AB31AA32A93375F003EFA4F58285F08323
:100CD30012055A1204B3FFFDD001D002D00312163D
:100CE3002B02125A90C7B47411F02212105B228B9C
:100CF300508A518952752BFF752C17752D19752E36
:100D0300FF752F1775304A7531FF7532177533E547
:100D1300753404753503753609753704753B02E47C
:100D2300F538F54EF539F53AAA51A95285503C8A62
:100D33003D893EAA54A95585533F8A408941AA5704
:100D4300A9588556428A438944AA5AA95B855945BD
:100D53008A468947EF601590C7D6E04408F07F3292
:100D63007E0012168390C7D6E054F7F0D2BBD2BCF4
:100D730090C7AE741DF090C7AC7401F090C7A9740E
:100D83001FF090C7AD7401F090C7AA741FF090C70D
:100D9300817410F0A37420F0A37430F0A37440F0B6
:100DA300A37450F090C78874C0F0A37410F0A374B8
:100DB30020F0A37430F0A37440F0A37450F090C7F4
:100DC300DE7401F0A3F0E4A3F0A3F022E53BB40347
:100DD30020E54C6003020E7DAB2EAA2FA9309000B4
:100DE300071204CC5440C41313540390C701F0807A
:100DF3007CE53B64046003020E7D90C701F0E54887
:100E0300247F60361460362402706DE53830E108C3
:100E130090C7007402F08005E490C700F090C7000B
:100E2300E0FFAB2EAA2FA9309000071204CC544048
:100E3300C413135403FEEF4E8033E48030E54C308B
:100E4300E70D547F75F002A424B4F974C7800DE54F
:100E53004C547F75F002A424C4F974C735F0AF0174
:100E6300F5718F72857282857183E0540190C7009A
:100E7300F090C7B57402F022800090C7B47411F0EB
:100E8300228B4F8A508951AC07EC547FFF14FE74B8
:100E930001A807088002C333D8FCF552E4EC30E71D
:100EA30039AA50A951EE75F003A4240DF8A64F08F2
:100EB300A60208A601E5514550454F90C7AC600C0A
:100EC300E04552F090C7DEE04552F022E0FFE552E4
:100ED300F4FEEF5EF090C7DE804AAA50A951EE758A
:100EE300F003A4241CF8A64F08A60208A601E551A6
:100EF3004550454F90C7AD601FE04552F090C7DFA6
:100F0300E04552F0EC75F002A424C5F974C735F03E
:100F13008982F58374FFF022E0FFE552F4FEEF5E71
:100F2300F090C7DFE05EF0228B548A558956AD54AA
:100F3300C2918FE5C2C0ED7018855659A859E6FED7
:100F4300055930C0FD85E5588EE5C2C0D557ED8003
:100F530072ED6401702585555985565A855A8285E7
:100F63005983E0FE055AE55A7002055930C0FD85E4
:100F7300E5588EE5C2C0D557E38048ED64FE70188E
:100F8300855659A859E2FE055930C0FD85E5588EAE
:100F9300E5C2C0D557ED802B85545985555A8556E2
:100FA3005BAB59AA5AA95B1204B3FE7401255BF526
:100FB3005BE4355AF55A30C0FD85E5588EE5C2C06D
:100FC300D557DE30C0FD85E558D29122787FE4F60F
:100FD300D8FD75817802101602081CE493A3F8E487
:100FE30093A34003F68001F208DFF48029E493A37E
:100FF300F85407240CC8C333C4540F4420C8834097
:1010030004F456800146F6DFE4800B010204081065
:101013002040809014EDE47E019360BCA3FF543F15
:1010230030E509541FFEE493A360010ECF54C0259D
:10103300E060A840B8E493A3FAE493A3F8E493A38D
:10104300C8C582C8CAC583CAF0A3C8C582C8CAC5F1
:1010530083CADFE9DEE780BE7B007A00797490FF04
:10106300FD1205B6EBF0A3EAF0A3E9F07B007A00EA
:10107300797190FFFD1205B6EBF0A3EAF0A3E9F056
:101083007B007A007948C003C002C001AB3CAA3D93
:10109300A93E89828A83D001D002D0031205B4EF1E
:1010A30014602A14602E14603824FE602004702B10
:1010B300AB71AA72A973E54DC395745006AF4DADDC
:1010C300078004AF74AD0712162B02125A90C7B4EF
:1010D3007402F02290C7C574FFF02290C7B4741154
:1010E300F022C0E0C0F0C083C082C0D075D000C081
:1010F30000C001C002C003C004C005C006C0079001
:10110300C7D6E030E7287480F0E53830E123E044C7
:1011130002F00000E0FF5307FD430701EFF07F07F4
:101123007E0012168390C7D6E054FEF08003433846
:1011330004E53830E005753B048003753B02AB42A0
:10114300AA43A9441205B0D007D006D005D004D0D5
:1011530003D002D001D000D0D0D082D083D0F0D041
:10116300E032157715771577A877A60308A6020846
:10117300A60115777B00A9777A0090FFFD1205B6CB
:10118300EBF0A3EAF0A3E9F0E5772407F886030878
:10119300E6FA08E6F990FFFD1205B6EBF0A3EAF0D4
:1011A300A3E9F0E5772404F8860308E6FA08E6F9EC
:1011B30090FFFD1205B6EBF0A3EAF0A3E9F0A877E0
:1011C30008860308E6FA08E6F9120066BF0106A8D6
:1011D30077E6FF80027F00E577240AF57722C0E0F7
:1011E300C0F0C083C082C0D075D000C000C001C0B1
:1011F30002C003C004C005C006C00712004EEF249E
:10120300F0601424D0601E2420703190809FE4F09D
:1012130090809E04F080251216EB90809FE4F0905E
:10122300809EF080171216D7EF700B7B017A8079BE
:101233005E12171380EF90805D7401F0D007D00623
:10124300D005D004D003D002D001D000D0D0D082BA
:10125300D083D0F0D0E032E50B701CE54EB401082A
:1012630090C7B4E04410F022754E01E490C7B5F086
:1012730090C7B47402F022E50BC3950CAF0C500277
:10128300AF0BE4FEEEC39F501EAB08AA09A90A8E5A
:10129300827583001204CCFD74002EF582E434C7FA
:1012A300F583EDF00E80DDEFC3950C5003754E0111
:1012B30090C7B5EFF0250AF50AE43509F509C3E54A
:1012C3000B9FF50B228F538B548A558956E5535444
:1012D3007F75F080A4FFC374009FF974C795F0AFC6
:1012E30001F5598F5AE553547F75F002A424B5F9DB
:1012F30074C735F0AF01F55B8F5CE4F558E558C36F
:1013030095575021AB54AA55A95685588275830029
:101313001204CCFFE55A2558F582E43559F583EFDD
:10132300F0055880D8855C82855B83E557F0229071
:10133300801D7408F0A37401F07B007A007900E447
:10134300FD8B4F8A5089518D521216589080A67486
:1013530001F0AF527E00781D7C80FDAB4FAA50A9EF
:101363005112048D7B017A80791D7557207F01020C
:1013730012C875E610D2927D20E4FF1216FF7B019E
:101383007A8079A0E4FF1213F07B017A8079A07F41
:10139300061213F012004E1216E11216EBC290E47D
:1013A30090809EF090805DF07F011215C1D2B9222A
:1013B300EF547F1425E0FEEF30E70BEE7E0024B6FA
:1013C300F9EE34C7800BAF067E0074C62FF9EE34F6
:1013D300C7AF01F5718F72BD010A85728285718372
:1013E3007401F022857282857183E4F0228F4F8B22
:1013F300508A518952E54F14600A24FB5019600446
:10140300240670251216CD8F57E54F242AFFAB50C3
:10141300AA51A952020F2BE54F240AFFAB50AA5140
:10142300A9521204B3FD1215DE22C290E4FF121575
:10143300A4E490809EF07B017A80797E7D20121750
:1014430006754F14D290AF4F154FEF70F9C29090BD
:10145300809F7401F090809FE070FA22A9078B822D
:101463008A83B9FF0474FFF022E930E7088D828C88
:10147300837401F022E95460FFBF60088D828C837E
:101483007402F022E97002F022E9F02290803DE03C
:1014930014601A24FE24FC501B2405701D7DF47C6B
:1014A300017FF41215459080A57401F0229080A568
:1014B3007406F0229080A57405F0228E4F8F50E4BD
:1014C30090805DF07F011215A4D290E5501550AEC7
:1014D3004F7002154F4E600F90805DE070097F01E1
:1014E3007E0012168380E4C2902241801C0041805A
:1014F300A60041805D0041809F0041809E004280A4
:10150300A84E2041801B044380180206514580A049
:10151300BADA55133700E4FF5338FBE53BB404064E
:10152300E53830E1010F753B05AB45AA46A947E90C
:101533004A4B600DAB45AA46A94789828A831205A7
:10154300B422AB07EC540FC454F0FFE54F540F4FD4
:10155300F54FEB540FFFE54F54F04FF54FAD4F7F71
:10156300040215DE753B02E4F539F53AF538AB3F75
:10157300AA40A941E94A4B6009AB3FAA40A94112DD
:1015830005B022157715771577A877A60308A60265
:1015930008A601E49080A6F07F60E5772406F5773E
:1015A300228F51E4FF1216138F52E551B401054304
:1015B300520180035352FEAD52E4FF0215DE8F4FFA
:1015C300E4FF1216138F50E54FB401054350028018
:1015D300035350FDAD50E4FF0215DEC291EF24200A
:1015E300F5E5C2C030C0FDAFE58DE5C2C030C0FD3A
:1015F30085E55DD291227FFA7E001216047FFA7E82
:10160300000000000000EF1F70011E144E70F22254
:10161300C2918FE5C2C030C0FDAFE5E4F5E5C2C0BD
:1016230030C0FDAFE5D291228B088A09890A8D0B60
:10163300AB2BAA2CA92D9000071204CCF50C227811
:101643007E7C807D017B017A80793D7E007F201244
:10165300048D02142D7F507EC3EF1FAC0670011E54
:101663004C60079080A6E070F02222E4F54FEF541F
:101673007FFFE54F54804FF54FAD4F7F050215DED9
:10168300AD07AC061215F91215F9ED1D70011C1406
:101693004C70F1221577A877A60775D901A877E4CE
:1016A300F6057722D310AF01C3C0D0AF3BD0D092A1
:1016B300AF221216F5EF540EFFE4C313EF13FF220C
:1016C3008FE5C2C030C0FDAFE5227F03121613EFD2
:1016D3002402FF227F17121613EF5401FF22C29137
:1016E3007FE21216C3D29122C2917FE11216C3D2B6
:1016F3009122C2917FFF1216C3D29122EF2411FFD0
:101703000215DE8D577FA0020F2B7F601216132266
:101713007F081209C92212010002000000201519D6
:101723007B000001010200010600FF0900A1011571
:101733000025FF750895200900810209009102C068
:10174300FF175CFF172B18090229000101008032E3
:101753000904000002030000000921100100012216
:10176300180007058103200001070502032000017B
:101773002A034E006F0072006400690063002000BA
:10178300530065006D00690063006F006E00640024
:101793007500630074006F00720048034E006F0011
:1017A30072006400690063002000530065006D004F
:1017B300690063006F006E006400750063007400CD
:1017C3006F007200200055005300420020005200B9
:1017D3004600200041006400610070007400650051
:0817E3007200FF1773FF179D50
:00000001FF
